:100A16008D80E5A0541FFEEF42068EA0E5A0541F70
:020A2600F5A039
:010A280022AB
:1008F600E4FEEEC3940874809480500FC297EF1301
:0B09060092A3EFC313FFD2970E80E70F
:0109110022C3
:1009DA00C29300C29700D293001208F6AF0512081C
:0409EA00F6C293229C
:10067E00E4FDC29300C29700D293001208F6E4FF85
:10068E00EFC39408748094805011C297EDC313FD8C
:10069E0030A303430580D2970F80E5C29300C29723
:0C06AE0000D29700C2A300D2A300AF0549
:0106BA00221D
:0604FE008B218A228923F4
:10050400E4FD7F8E1209DA7D807F801209DAE4FC33
:10051400ECC39403748094805036EC25E0FFC374DC
:10052400849FFFAB21AA22A9238C82758300120128
:10053400FCFE75F00A8475F00A84ADF0EDC454F045
:10054400FDEE75F00A84E5F04DFD1209DA0C80C069
:070554007D807F8E0209DAB1
:06063D008B248A258926AA
:10064300C2AFE4FCECC3940374809480502AEC257D
:10065300E0FFC374859FFF12067EEFC4540F75F04D
:100663000AA4FEEF540F2EAB24AA25A9268C82756B
:0A067300830012023B0C80CCD2AFD2
:01067D00225A
:04096600D2A07F0A92
:10096A00000000000000000000000000000000AECF
:06097A00071FEE70EB22E6
:0F0A2900D2A1120966C2A17F0A12096AC2A022D5
:0C0A4600C2A1120966D2A17F0A02096A4F
:02072E00AD0715
:10073000E4FCECC39408748094805024C2A07F0A27
:1007400012096AED30E704D2A18002C2A17F0A1229
:10075000096AD2A0ED25E0FD7F0A12096A0C80D259
:02076000C2A035
:010762002274
:1007DC00E4FCECC39408748094805017120966ED05
:1007EC0025E0FD30A103430501C2A07F0A12096A6E
:0507FC000C80DFAF05D9
:0108010022D4
:10087300AB05120A297FA012072E120885AF0312B7
:02088300072E3E
:10088500120966A2A1E433FDC2A07F0A12096AAF6C
:01089500055D
:01089600223F
:10000300C2A0EF24FF92A17F0A12096A120966C2F5
:08001300A0D2A17F0A02096AD4
:02084E00AB07F6
:10085000120A297F9012087A120A297F9112072E14
:100860001208851207DCAD077F01120003120A4649
:02087000AF05D2
:010872002263
:1009B000AB07120A297F9012072E1208857F411279
:0509C000087A020A465E
:1005FB008B128A138914120873120A297FA112070E
:10060B002E120885AF161516EF60241207DCAB12FD
:10061B000514E514AA137002051314F9EF1202293D
:10062B00E51660047F018002E4FF12000380D5020F
:02063B000A466D
:1005B5008B178A188919120873AF1B151BEF601F5B
:1005C500AB170519E519AA187002051814F91201D7
:1005D500E3FF12072E1208857FC812096A80DA1216
:1005E5000A467FFF12096A7FFF12096A7FFF120917
:0605F5006A7FFF02096AA3
:0E0A38007DFF7F80120A16E4FD7FA0020A16E1
:10055B00E4FF538EEFC2C4D2C2D2B520B3027F04E4
:10056B0020B2027F0520B1027F0620B0027F07D2A6
:10057B00C4C2C2D2B520B3027F0820B2027F0920C9
:10058B00B1027F0A20B0027F0BC2C4D2C2D2B52007
:10059B00B3027F0C20B2027F0D20B1027F0E20B080
:0905AB00027F0F75B0FF438E10B2
:0105B4002224
:0C080200011C00011EFF011D00011FFF72
:100492009000011201FC25E0FF1201E34FFF9000E2
:1004A200021201FC25E025E04FFF9000031201FC3F
:1004B20033333354F84FFF9000041201FCC454F05C
:1004C2004FFF9000051201FCC43354E04FFF90002F
:1004D200061201FCC4333354C04FFF9000071201CF
:1004E200FCFEC433333354804FF51C651E600CE5AB
:0C04F2001CF4FD7F80120A16851C1E22DF
:0B0A52007DFF7F80120A16E4F51E22D3
:10091200300005431D408003531DBFE51D651F6068
:0C0922000AAD1D7FA0120A16851D1F22C1
:10092E00300105431D108003531DEFE51D651F604B
:0C093E000AAD1D7FA0120A16851D1F22A5
:10094A00300205431D208003531DDFE51D651F602E
:0C095A000AAD1D7FA0120A16851D1F2289
:10080E00082C1010101010101010083700000000E7
:09081E00000000000329000000A5
:10082800C3E50E940A74809480401AE4F50E12050C
:100838005B8F0DE50B650DFF550DF508E50DF45FB4
:06084800F50C850D0B22EA
:1002C0007B03C37836E6945018E69400500302038B
:1002D00063E4F608F6E5116003020363782C760FF9
:1002E000782E7610187610AE09AF0A7C277D101292
:1002F000025D7C007D0A12025D782FA605AE09AF73
:100300000A7C037DE812025D7C007D0A12025D78A2
:1003100030A605AE09AF0A7C007D6412025D7C0048
:100320007D0A12025D7831A605AE09AF0A7C007D18
:100330000A12025D7C007D0A12025D7832A605AECB
:1003400009AF0A7C007D0A12025D7833A605742C81
:100350002BF8E6700E742C2BF87610AF030BEF64BD
:030360000770EB38
:010363002277
:010A6C002267
:1009C500538EBF53890F758B18758DFCC28FD28ED0
:0509D500D2ABD2AF22FD
:1009EE00538E7F5389F0438905758A18758CFCC226
:0409FE008DD28C22E8
:03001B0002036479
:10036400C0E0C0F0C083C082C0D075D000C000C05F
:1003740001C002C003C004C005C006C007050E7852
:100384003606E618700106783406E664087001F64D
:100394007834E6242CF8E6FED394147480948078A0
:1003A40034E6FF4008EE24D4FDD2048007242CF860
:1003B400E6FDC2041207637B007A007937120492C7
:1003C4000510E5107002050FFFAE0FBE0319BFE85C
:1003D40016750F00751000AF8CEFAD8AF509EDF5B9
:1003E4000A758C00758A00D007D006D005D004D0D9
:1003F40003D002D001D000D0D0D082D083D0F0D0AE
:02040400E032E4
:100A0200120A381209C51209EE1208281202C0127F
:040A12000A6C80F5F5
:0408BA007F057E0038
:1008BE00EF1FAA0670011E4A600FE4FDEDC3940CF3
:0908CE007480948050EA0D80F35F
:0108D70022FE
:02078E00A907B9
:10079000E4FBEBC39408748094805012C294E91374
:1007A00092941208BAD294E9C313F90B80E47F053E
:0507B0007E000208BEFE
:10089700E4FBEBC39408748094805014C294ECC3B7
:1008A70013FCD2943094034304801208BA0B80E2FD
:0208B700AF048C
:0108B900221C
:1007B500C203D2947F0C7E001208BEC2947F507E85
:1007C500001208BED2947F0A7E001208BEA294923F
:0607D500031208BAA203A2
:0107DB0022FB
:1006BB001207B57FCC12078E7F4412078E7FC87E40
:1006CB00001208BE1207B57FCC12078E7FBE120731
:1006DB008E120897A907120897EFAD01FCEC1201D7
:0B06EB0029E4FBFA7980783D02001E34
:10098000C0F9A4B0999282F880908883C6A1868E1F
:09099000FF010204081020408060
:100763008F278D287DFF7FE0120A16E527900991D8
:1007730093FD7FC0120A16E5289009809330040484
:0B078300547F8000FD7FE0120A162268
:10099900759850438E01538EFB75D7E675D6FF4384
:0709A9008E10D2ACD2AF2288
:080A5D008F993099FDC2992226
:060A650000007F21DFFE0E
:010A6B002268
:1008D800C2AFE4FEEEC3940874809480500DD290A9
:0D08E800120A65C290120A650E80E9D2AFB7
:0108F50022E0
:1006F600E4F5D9F5F9F5E91208D8D2DE30910330E0
:10070600DFFAC2DE20DF1CAFF9EFFEADE9EDFFAC8C
:1007160006E41201297B967A43798B783C12001EF7
:07072600020162C2DF7F0047
:01072D0022A9
:10001E00EC4D6011E8497017ED33EC3304600DE4DC
:10002E00FCFFFEFD22E933E8330470F80201CE1224
:10003E00019958046009E4CC248150062850090225
:10004E0001D82840030201D5C0E0EB4A7044B980C4
:10005E0006D0E0FB0201C4EF4E701CBD8008EBFF22
:10006E00EAFEE9FD80EBE98DF0A4FEE5F002010762
:10007E00E9CDF9EAFEEBFFEF89F0A4FCE5F0CE89BD
:10008E00F0A42EFFE435F0CD89F0A42DFEE435F07A
:10009E008067EF4E7005BD80D780C3EF8BF0A4ACA8
:1000AE00F0EE8BF0A42CFCE435F0F8EF8AF0A42CE3
:1000BE00E5F038FCE433CB8DF0A42CFCE5F03BF8F6
:1000CE00EE8AF0A42CFCE5F038F8E433CF89F0A4E6
:1000DE002CFCE5F038CF3400CE89F0A42FFFE5F0EC
:1000EE003EFEE433C98DF0A42EFEE5F039CD8AF044
:1000FE00A42FFFE5F03EFEE43DFD33D0E0FB5007BC
:10010E000BBB000F0201D8EC2CFCEF33FFEE33FEDD
:06011E00ED33FD0201B00B
:1001240075F020800E75F010800575F0087D007E56
:10013400007F003392D530D5031202B2EC33401065
:10014400EF33FFEE33FEED33FDEC33FCD5F0ED225F
:0E015400E5F0247EA2D513CC92E7CDCEFF229B
:10016200EDD2E7CD33EC3392D524814006E4FFFE95
:10017200FDFC22FCE4CFCECDCC24E0501174FF80F4
:10018200EDC3CC13CCCD13CDCE13CECF13CF047091
:07019200F030D5DE0202B2DD
:10019900E9D2E7C933E833F892D5EDD2E7CD33ECAC
:0701A90033FC5002B2D52225
:1001B000EC30E7100FBF000C0EBE00080DBD0004B0
:1001C0000BEB6014A2D5EB13FCED92E7FD2274FF5C
:1001D000FCFDFEFF22E480F8A2D574FF13FC7D80B5
:0301E000E480EFC9
:03000000020406F1
:0C040600787FE4F6D8FD75813E02044DBD
:1001E300BB010689828A83E0225002E722BBFE021A
:0901F300E32289828A83E493224D
:1001FC00BB010CE58229F582E5833AF583E02250B8
:10020C0006E92582F8E622BBFE06E92582F8E22201
:0D021C00E58229F582E5833AF583E493221B
:10022900BB010689828A83F0225002F722BBFE01B4
:02023900F322AE
:10023B00F8BB010DE58229F582E5833AF583E8F0F9
:10024B00225006E92582C8F622BBFE05E92582C8A5
:02025B00F2228D
:10025D00BC000BBE0029EF8DF084FFADF022E4CC85
:10026D00F875F008EF2FFFEE33FEEC33FCEE9DEC4E
:10027D00984005FCEE9DFE0FD5F0E9E4CEFD22ED94
:10028D00F8F5F0EE8420D21CFEADF075F008EF2FDE
:10029D00FFED33FD4007985006D5F0F222C398FDCF
:0502AD000FD5F0EA226C
:0E02B200C3E49FFFE49EFEE49DFDE49CFC225D
:10041200020A02E493A3F8E493A34003F68001F2F4
:1004220008DFF48029E493A3F85407240CC8C333EB
:10043200C4540F4420C8834004F456800146F6DFBA
:10044200E4800B0102040810204080900802E47E40
:10045200019360BCA3FF543F30E509541FFEE493AF
:10046200A360010ECF54C025E060A840B8E493A376
:10047200FAE493A3F8E493A3C8C582C8CAC583CAA1
:10048200F0A3C8C582C8CAC583CADFE9DEE780BE59
:0108270000D0
:00000001FF
