:100D53008D80E5A0541FFEEF42068EA0E5A0541F30
:020D6300F5A0F9
:010D6500226B
:100C3E00E4FEEEC3940874809480500FC297EF13B5
:0B0C4E0092A3EFC313FFD2970E80E7C4
:010C59002278
:100D3F00C29300C29700D29300120C3EAF05120C63
:040D4F003EC29322EB
:10099500E4FDC29300C29700D29300120C3EE4FF1F
:1009A500EFC39408748094805011C297EDC313FD72
:1009B50030A303430580D2970F80E5C29300C29709
:0C09C50000D29700C2A300D2A300AF052F
:0109D1002203
:060815008B258A268927CD
:10081B00E4FD7F8E120D3F7D807F80120D3FE4FC47
:10082B00ECC39403748094805036EC25E0FFC374C2
:10083B00849FFFAB25AA26A9278C82758300120300
:10084B0075FE75F00A8475F00A84ADF0EDC454F0B2
:10085B00FDEE75F00A84E5F04DFD120D3F0C80C0E6
:07086B007D807F8E020D3F2E
:060954008B288A29892A84
:10095A00C2AFE4FCECC3940374809480502AEC2563
:10096A00E0FFC374859FFF120995EFC4540F75F019
:10097A000AA4FEEF540F2EAB28AA29A92A8C827545
:0A098A0083001203B40C80CCD2AF3E
:010994002240
:040CCA00D2A07F0A2B
:100CCE00000000000000000000000000000000AE68
:060CDE00071FEE70EB227F
:0F0D6600D2A1120CCAC2A17F0A120CCEC2A022C7
:0C0D9000C2A1120CCAD2A17F0A020CCE34
:020A4500AD07FB
:100A4700E4FCECC39408748094805024C2A07F0A0D
:100A5700120CCEED30E704D2A18002C2A17F0A12A8
:100A67000CCED2A0ED25E0FD7F0A120CCE0C80D271
:020A7700C2A01B
:010A7900225A
:100B5300E4FCECC39408748094805017120CCAED23
:100B630025E0FD30A103430501C2A07F0A120CCE8C
:050B73000C80DFAF055E
:010B7800225A
:100B9E00AB05120D667FA0120A45120BB0AF031201
:020BAE000A45F6
:100BB000120CCAA2A1E433FDC2A07F0A120CCEAF70
:010BC000052F
:010BC1002211
:10000300C2A0EF24FF92A17F0A120CCE120CCAC227
:08001300A0D2A17F0A020CCE6D
:020B7900AB07C8
:100B7B00120D667F90120BA5120D667F91120A451E
:100B8B00120BB0120B53AD077F01120003120D9025
:020B9B00AF05A4
:010B9D002235
:100D1500AB07120D667F90120A45120BB07F411288
:050D25000BA5020D907A
:100912008B158A168917120B9E120D667FA1120A79
:1009220045120BB0AF191519EF6024120B53AB151A
:100932000517E517AA167002051614F9EF1203A29D
:10094200E51960047F018002E4FF12000380D502F2
:020952000D9006
:1008CC008B1A8A1B891C120B9EAF1E151EEF601F04
:1008DC00AB1A051CE51CAA1B7002051B14F91203AC
:1008EC005CFF120A45120BB07FC8120CCE80DA12D4
:1008FC000D907FFF120CCE7FFF120CCE7FFF120CDF
:06090C00CE7FFF020CCEBD
:0E0D75007DFF7F80120D53E4FD7FA0020D5321
:10087200E4FF538EEFC2C4D2C2D2B520B3027F04CA
:1008820020B2027F0520B1027F0620B0027F07D28C
:10089200C4C2C2D2B520B3027F0820B2027F0920AF
:1008A200B1027F0A20B0027F0BD2C4D2C2C2B520ED
:1008B200B3027F0C20B2027F0D20B1027F0E20B066
:0908C200027F0F75B0FF438E1098
:0108CB00220A
:0C0AAE000121000123FF0122000124FFB0
:1007A90090000112037525E0FF12035C4FFF9000D2
:1007B9000212037525E025E04FFF9000031203752F
:1007C90033333354F84FFF900004120375C454F0C7
:1007D9004FFF900005120375C43354E04FFF90009A
:1007E90006120375C4333354C04FFF900007120338
:1007F90075FEC433333354804FF5216523600CE50E
:0C08090021F4FD7F80120D538521232275
:0B0D9C007DFF7F80120D53E4F5232241
:100C5A0030020543224080035322BFE52265246007
:0C0C6A000AAD227FA0120D538522242227
:100C760030030543221080035322EFE522652460EA
:0C0C86000AAD227FA0120D53852224220B
:100C920030040543222080035322DFE522652460CD
:0C0CA2000AAD227FA0120D5385222422EF
:100ABA00083A10101010101010100848000000001A
:0F0ACA000000000003370000000151190152190C
:10072900C3E514940A748094804074E4F5141208A3
:10073900728F0FE50D650FFF550FF508E50FF45F93
:10074900F50E850F0DE50824FB604F24FD602B1481
:10075900603724057049785006E664037001F6781D
:1007690050E6FF7E00640170057852E618F6EF64E2
:10077900014E702B7851E608F6227850E664017034
:100789001E0816E6F47018F6227850E66401700F18
:100799000806E664647008766322A205B39205220E
:10043900C37847E694C818E694005003020537E4E8
:10044900F608F61209D28F0C8E0B8D0A8C0978509A
:10045900E614604B14607424026003020537783A8D
:10046900760C087610087610087610AF0CAE0BAD36
:100479000AAC091202DBEF75F00A8475F00A847878
:100489003EA6F0EF75F00A84E5F0242C08F6E4FFA7
:10049900FE7DC87C42AB0CAA0BA90AA80980647826
:1004A9003A76110876100876100876100876100842
:1004B90076107851E6FF75F00A8475F00A84784061
:1004C900A6F0EF75F00A8408A6F022783A760A08B1
:1004D9007610087610087610087610E4FFFE7D3055
:1004E9007C42AB13AA12A911A81012002D1202DB2B
:1004F900783FA607E4FFFE7DC87C42AB13AA12A988
:1005090011A81012011E1202DBAB07AA067C007D9E
:100519000A1203D67C007D0A1203D67840A6057C10
:0F052900007D0AAF03AE021203D67841A6052269
:1005380020052E7852E6FCE41202A7AB0CAA0BA900
:100548000AA809120224E4500BF513F512F511F567
:10055800100205E9F513F5127511A0751040020592
:10056800E9E4FFFE7DA07C41AB0CAA0BA90AA8090F
:10057800120224500DE4F513F51275118075103F21
:100588008047E4FFFE7D207C42AB0CAA0BA90AA899
:1005980009120224600F400DE4F513F5127511805D
:1005A80075104080247F9A7E997D197C3EAB0CAAF9
:1005B8000BA90AA80912011EE4FBFAF978C0120077
:1005C8002D8F138E128D118C10E4FFFE7D4C7C4212
:1005D800AB13AA12A911A81012011E1202DB120DE8
:1005E800152005047F0180027F007848A607E4FFF4
:1005F800EFC394037480948050157850E6B50704CF
:0F0608007E0180027E0074492FF8A6060F80E164
:0106170022C0
:100CAE007842E660167845E6C3940A7480948040D4
:0C0CBE000AE47843F67845F67842F62206
:03002300020A7A54
:100A7A00C0E0C0D075D000C000309821784376011C
:100A8A00784576007842E6242DF8A699C2987842ED
:100A9A0006E6C3940A7480948040027600D000D09F
:040AAA00D0D0E03296
:100D2A00538EBF53890F758B18758DFCC28FD28E67
:050D3A00D2ABD2AF2294
:03001B000206A436
:1006A400C0E0C0F0C083C082C0D075D000C000C01C
:1006B40001C002C003C004C005C006C00705147809
:1006C4004706E618700106784406E664087001F6E9
:1006D4007844E6243AF8E6FED3941474809480783F
:1006E40044E6FF4008EE24D4FDD2008007243AF803
:1006F400E6FDC200120ADA7B007A0079481207A9E3
:100704007843E664017003784506D007D006D00527
:10071400D004D003D002D001D000D0D0D082D08376
:05072400D0F0D0E0322E
:0C0D83007F067EB47D1ADDFEDEFCDFFA88
:010D8F002241
:100C21001209D2120D83120D75120D2A120CFE1229
:0D0C31000729120439120538120CAE80F2AA
:040BE5007F057E000A
:100BE900EF1FAA0670011E4A600FE4FDEDC3940CC5
:090BF9007480948050EA0D80F331
:010C020022CF
:020B0500A9073E
:100B0700E4FBEBC39408748094805012C294E913F9
:100B17009294120BE5D294E9C313F90B80E47F0595
:050B27007E00020BE955
:100BC200E4FBEBC39408748094805014C294ECC389
:100BD20013FCD294309403430480120BE50B80E2A1
:020BE200AF045E
:010BE40022EE
:100B2C00C201D2947F0C7E00120BE9C2947F507EDE
:100B3C0000120BE9D2947F0A7E00120BE9A2949268
:060B4C0001120BE5A201FD
:010B52002280
:1009D200120B2C7FCC120B057F44120B057FC87EB5
:1009E20000120BE9120B2C7FCC120B057FBE120BEF
:1009F20005120BC2A907120BC2EFAD01FCEC1202E9
:0B0A0200A2E4FBFA7980783D02011E9F
:100CE400C0F9A4B0999282F880908883C6A1868EB8
:0A0CF400FF8C01020408102040806C
:100ADA008F2B8D2C7DFF7FE0120D53E52B900CF6AA
:100AEA0093FD7FC0120D53E52C900CE49330000463
:0B0AFA00547F8000FD7FE0120D5322AE
:100CFE00759850438E01538EFB75D7E675D6FF431C
:070D0E008E10D2ACD2AF221F
:080DA7008F993099FDC29922D9
:060DAF0000007F21DFFEC1
:010DB500221B
:100C0300C2AFE4FEEEC3940874809480500DD2907A
:0D0C1300120DAFC290120DAF0E80E9D2AFEE
:010C200022B1
:100A0D00E4F5D9F5F9F5E9120C03D2DE3091033096
:100A1D00DFFAC2DE20DF1CAFF9EFFEADE9EDFFAC72
:100A2D0006E41202A27B967A43798B783C12011E62
:070A3D000202DBC2DF7F00B3
:010A4400228F
:10002600020347E86480F8E933E83360110460F0BE
:10003600ED33EC337009E8FCE9FDEAFEEBFF220440
:1000460060DED3EB9FEA9EE99DE8C2E78CF0C2F73B
:1000560095F0400CE8CCF8E9CDF9EACEFAEBCFFB07
:1000660012031285D0F05804700320D5B3E804704B
:10007600075002B2D502035192D5EC0460F7E4CCE6
:10008600C0E0C398F8603B94186008400DD0E0FBD0
:10009600020329E4FBFAC9FC8028E830E406E4C937
:1000A600FBE4CAFCE830E305E4C9CACBFCE8540724
:1000B6006010F8C3E913F9EA13FAEB13FBEC13FC2F
:1000C600D8F130F52FC3E49CFCEF9BFFEE9AFEEDD2
:1000D60099FDD0E0FBEF4E4D4C701222DB0302037C
:1000E6004EEC2CFCEF33FFEE33FEED33FDED30E747
:1000F600EB020329EF2BFFEE3AFEED39FDD0E0FBD4
:1001060050130BBB0003020351ED13FDEE13FEEF7C
:0801160013FFEC13FC020329A6
:10011E00EC4D6011E8497017ED33EC3304600DE4DB
:10012E00FCFFFEFD22E933E8330470F802034712A8
:10013E00031258046009E4CC2481500628500902A9
:10014E00035128400302034EC0E0EB4A7044B980CD
:10015E0006D0E0FB02033DEF4E701CBD8008EBFFA6
:10016E00EAFEE9FD80EBE98DF0A4FEE5F002020760
:10017E00E9CDF9EAFEEBFFEF89F0A4FCE5F0CE89BC
:10018E00F0A42EFFE435F0CD89F0A42DFEE435F079
:10019E008067EF4E7005BD80D780C3EF8BF0A4ACA7
:1001AE00F0EE8BF0A42CFCE435F0F8EF8AF0A42CE2
:1001BE00E5F038FCE433CB8DF0A42CFCE5F03BF8F5
:1001CE00EE8AF0A42CFCE5F038F8E433CF89F0A4E5
:1001DE002CFCE5F038CF3400CE89F0A42FFFE5F0EB
:1001EE003EFEE433C98DF0A42EFEE5F039CD8AF043
:1001FE00A42FFFE5F03EFEE43DFD33D0E0FB5007BB
:10020E000BBB000F020351EC2CFCEF33FFEE33FE61
:06021E00ED33FD0203298F
:1002240074F8CC6480CCC86480C8F58204604FC381
:10023400EB9FF5F0EA9E42F0E99D42F0E89C45F020
:10024400603C501DE5825FFFE582D313CB5BCBF4AA
:100254002B5582FB50280ABA002409B900200880D3
:100264001DE5825BFBE582D313CF5FCFF4C3132F6D
:100274005582FF50090EBE00050DBD00010CC3EBF5
:100284009FF5F0EA9E42F0E99D42F0E89C45F0605B
:0902940007CC4820E701B3EC227D
:10029D0075F020800E75F010800575F0087D007EDC
:1002AD00007F003392D530D50312042BEC33401070
:1002BD00EF33FFEE33FEED33FDEC33FCD5F0ED22E5
:0E02CD00E5F0247EA2D513CC92E7CDCEFF2221
:1002DB00EDD2E7CD33EC3392D524814006E4FFFE1B
:1002EB00FDFC22FCE4CFCECDCC24E0501174FF807A
:1002FB00EDC3CC13CCCD13CDCE13CECF13CF047017
:07030B00F030D5DE02042BE7
:10031200E9D2E7C933E833F892D5EDD2E7CD33EC31
:0703220033FC5002B2D522AA
:10032900EC30E7100FBF000C0EBE00080DBD000435
:100339000BEB6014A2D5EB13FCED92E7FD2274FFE1
:10034900FCFDFEFF22E480F8A2D574FF13FC7D803A
:03035900E480EF4E
:03000000020618DD
:0C061800787FE4F6D8FD75815202065F81
:10035C00BB010689828A83E0225002E722BBFE029F
:09036C00E32289828A83E49322D2
:10037500BB010CE58229F582E5833AF583E022503D
:1003850006E92582F8E622BBFE06E92582F8E22287
:0D039500E58229F582E5833AF583E49322A1
:1003A200BB010689828A83F0225002F722BBFE013A
:0203B200F32234
:1003B400F8BB010DE58229F582E5833AF583E8F07F
:1003C400225006E92582C8F622BBFE05E92582C82B
:0203D400F22213
:1003D600BC000BBE0029EF8DF084FFADF022E4CC0B
:1003E600F875F008EF2FFFEE33FEEC33FCEE9DECD4
:1003F600984005FCEE9DFE0FD5F0E9E4CEFD22ED1A
:10040600F8F5F0EE8420D21CFEADF075F008EF2F63
:10041600FFED33FD4007985006D5F0F222C398FD54
:050426000FD5F0EA22F1
:0E042B00C3E49FFFE49EFEE49DFDE49CFC22E2
:10062400020C21E493A3F8E493A34003F68001F2BF
:1006340008DFF48029E493A3F85407240CC8C333D7
:10064400C4540F4420C8834004F456800146F6DFA6
:10065400E4800B0102040810204080900AAEE47E7E
:10066400019360BCA3FF543F30E509541FFEE4939B
:10067400A360010ECF54C025E060A840B8E493A362
:10068400FAE493A3F8E493A3C8C582C8CAC583CA8D
:10069400F0A3C8C582C8CAC583CADFE9DEE780BE45
:010AD900001C
:00000001FF
