:100EB6008D80E5A0541FFEEF42068EA0E5A0541FCC
:020EC600F5A095
:010EC8002207
:100D9F00E4FEEEC3940874809480500FC297EF1353
:0B0DAF0092A3EFC313FFD2970E80E762
:010DBA002216
:100EA200C29300C29700D29300120D9FAF05120D9C
:040EB2009FC2932226
:100AF000E4FDC29300C29700D29300120D9FE4FF61
:100B0000EFC39408748094805011C297EDC313FD15
:100B100030A303430580D2970F80E5C29300C297AC
:0C0B200000D29700C2A300D2A300AF05D2
:010B2C0022A6
:06093A008B1D8A1E891FBF
:10094000E4FD7F8E120EA27D807F80120EA2E4FC59
:10095000ECC39403748094805036EC25E0FFC3749C
:10096000849FFFAB1DAA1EA91F8C827583001202F3
:100970007DFE75F00A8475F00A84ADF0EDC454F084
:10098000FDEE75F00A84E5F04DFD120EA20C80C05C
:070990007D807F8E020EA2A4
:060A70008B278A2889296A
:100A7600C2AFE4FCECC3940374809480502AEC2546
:100A8600E0FFC374859FFF120AF0EFC4540F75F0A0
:100A96000AA4FEEF540F2EAB27AA28A9298C82752B
:0A0AA60083001202BC0C80CCD2AF1A
:010AB0002223
:040E4700D2A07F0AAC
:100E4B00000000000000000000000000000000AEE9
:060E5B00071FEE70EB2200
:0F0EC900D2A1120E47C2A17F0A120E4BC2A02265
:0C0EE600C2A1120E47D2A17F0A020E4BDF
:020BA000AD079F
:100BA200E4FCECC39408748094805024C2A07F0AB1
:100BB200120E4BED30E704D2A18002C2A17F0A12CD
:100BC2000E4BD2A0ED25E0FD7F0A120E4B0C80D217
:020BD200C2A0BF
:010BD40022FE
:100CB100E4FCECC39408748094805017120E47ED45
:100CC10025E0FD30A103430501C2A07F0A120E4BAE
:050CD1000C80DFAF05FF
:010CD60022FB
:100CFC00AB05120EC97FA0120BA0120D0EAF031282
:020D0C000BA03A
:100D0E00120E47A2A1E433FDC2A07F0A120E4BAF12
:010D1E0005CF
:010D1F0022B1
:10000300C2A0EF24FF92A17F0A120E4B120E47C229
:08001300A0D2A17F0A020E4BEE
:020CD700AB0769
:100CD900120EC97F90120D03120EC97F91120BA03B
:100CE900120D0E120CB1AD077F01120003120EE6B0
:020CF900AF0545
:010CFB0022D6
:100E7800AB07120EC97F90120BA0120D0E7F411204
:050E88000D03020EE65F
:100A2E008B0E8A0F8910120CFC120EC97FA1120BAD
:100A3E00A0120D0EAF121512EF6024120CB1AB0EF8
:100A4E000510E510AA0F7002050F14F9EF1202AA95
:100A5E00E51260047F018002E4FF12000380D502DC
:020A6E000EE692
:1009E8008B138A148915120CFCAF171517EF601FAB
:1009F800AB130515E515AA147002051414F91202B3
:100A080064FF120BA0120D0E7FC8120E4B80DA1273
:100A18000EE67FFF120E4B7FFF120E4B7FFF120E6A
:060A28004B7FFF020E4BA4
:0E0ED8007DFF7F80120EB6E4FD7FA0020EB6F5
:1008D800E4FF538EEFC2C4D2C2D2B520B3027F0464
:1008E80020B2027F0520B1027F0620B0027F07D226
:1008F800C4C2C2D2B520B3027F0820B2027F092049
:10090800B1027F0A20B0027F0B20B30520B2027F1C
:1009180059C2C4D2C2D2B520B3027F0C20B2027F22
:100928000D20B1027F0E20B0027F0F75B0FF438EFD
:0109380010AE
:01093900229B
:0C0C09000123000125FF0124000126FF4B
:10086C0090000112027D25E0FF1202644FFF900000
:10087C000212027D25E025E04FFF90000312027D5D
:10088C0033333354F84FFF90000412027DC454F0FC
:10089C004FFF90000512027DC43354E04FFF9000CF
:1008AC000612027DC4333354C04FFF90000712026E
:1008BC007DFEC433333354804FF5236525600CE53E
:0C08CC0023F4FD7F80120EB68523252248
:0B0EFE007DFF7F80120EB6E4F5252278
:100DBB00300F0543244080035324BFE52465266090
:0C0DCB000AAD247FA0120EB6852426225B
:100DD700300E0543241080035324EFE52465266075
:0C0DE7000AAD247FA0120EB6852426223F
:100DF30030100543242080035324DFE52465266057
:0C0E03000AAD247FA0120EB68524262222
:100C1500083E1010101010101010085700000000AA
:100C250000000000033400000001510101601E01B5
:020C35003B1E64
:1005B000C3E51C940A748094805003020689E4F514
:1005C0001C1208D88F1BE519651BFF551BF518E594
:1005D0001BF45FF51A851B19AF187E00EF640470D9
:1005E000167838E664017003D38001C3920AC20B07
:1005F000783806E65403F67838E6FD7C006402702D
:100600005FEF64054E7002B20B200B28E5186408FA
:10061000700D7860E6C3945074809480500106E5B4
:10062000186409703B7860E6D39414748094804019
:100630002F16802CE51864087010783BE6C39450A0
:10064000748094805004740526F6E51864097010CF
:10065000783BE6D3941474809480400474FB26F6AF
:10066000ED64034C7023C37853E694D018E69407E6
:100670004006E47855F608F6E51964597003D20986
:0A06800022C209E47852F608F622BF
:10034100C37850E694C818E6940050030204ABE465
:10035100F608F67838E614603F14607714700302EB
:100361000417240360030204AB783E760C785FE641
:10037100FF75F00A8475F00A84783FA6F0EF75F0F6
:100381000A8408A6F0087610087610087610087618
:10039100117851E67845F622783E76127854E6785F
:1003A1003FF60876100876100876107839E6FF7562
:1003B100F0648475F00A847843A6F0EF75F00A843E
:1003C10075F00A8408A6F07839E675F00A84784554
:1003D100A6F022783E7613784076100876100876DB
:1003E10010087610A20BE43314600E0460030204BB
:1003F100AB783F760C78608006783F7612783BE6E2
:10040100FF75F00A8475F00A847844A6F0EF75F060
:100411000A8408A6F022783E761108760C08761038
:100421000876107855E6FE08E6FFC394E8EE9403DB
:1004310040127C037DE81202DE7C007D0A1202DE9E
:10044100AF0580027F107842A6077855E6FE08E6E0
:10045100FFC39464EE940040127C007D641202DEBE
:100461007C007D0A1202DEAF0580027F107843A670
:10047100077855E6FE08E6FFC3940AEE94004012A1
:100481007C007D0A1202DE7C007D0A1202DEAF05CD
:1004910080027F107844A6077855E6FE08E6FF7CC7
:0B04A100007D0A1202DE7845A605224D
:10073700300A030207BE7851E6FF7E00C3940174B6
:1007470080948040047D0180027D007857A605C310
:10075700EF9402EE6480948040047F0180027F0062
:100767007858A6077851E6FF7E00C39403748094F7
:100777008040047D0180027D007859A605C3EF946F
:1007870004EE6480948040047F0180027F00785AE1
:10079700A607300706300103D38001C3920D200856
:1007A7000B300D08785606E618700106A20D920860
:1007B700A208920E120DD7300003E4801030040611
:1007C700785E7601800A300607A205E433785EF684
:0907D7007B007A00795702086CDE
:100E0F007846E66016784EE6C3940A748094804064
:0C0E1F000AE47847F6784EF67846F62292
:03002300020BD5F8
:100BD500C0E0C0D075D000C00030982178477601BC
:100BE500784E76007846E6242AF8A699C298784683
:100BF50006E6C3940A7480948040027600D000D043
:040C0500D0D0E03239
:100997007837E6C39464748094804044E4F67F011A
:1009A700120CD7EFFD7C00C39499748094804005A6
:1009B7007851760122C3ED9466EC648094804005FB
:1009C7007851760222AC07E41201AFE4FBFA79CC46
:1009D700784112012C785160025003760322760485
:0109E70022ED
:100AB100C3783DE6942C18E694014032E4F608F63A
:100AC100120B2D8F0D8E0C8D0B8C0A1201E3785FAA
:100AD100A60708E6FCE41201AFAB0DAA0CA90BA80E
:0E0AE1000A12012C60054003D38001C392016C
:010AEF0022E4
:10068A00C37849E694E718E694035003020736E470
:10069A00F608F620030302072B120B687839EFF6E7
:1006AA0008E6C39FFFE49400FE120EF27839E6FED4
:1006BA0008F6EEC3089650028001C392072002365C
:1006CA00EFFD7C00C39405748094805005E4F50A1C
:1006DA008013C3ED940AEC648094805005750A0176
:1006EA008003750A02E50A7854666003D38001C361
:1006FA0092027854A60A200A337854E6FF7E0064F0
:10070A00027003D38001C39206EF4E7003D38001B7
:10071A00C392007854E664017003D38001C3920443
:0C072A0022D203120B687839EFF608F6B3
:0107360022A0
:100E8D00538EBF53890F758B18758DFCC28FD28E03
:050E9D00D2ABD2AF2230
:03001B000204AC30
:1004AC00C0E0C0F0C083C082C0D075D000C000C016
:1004BC0001C002C003C004C005C006C007051C78FB
:1004CC005006E618700106783706783D06E6187077
:1004DC000106784906E618700106784A06E66408B3
:1004EC007001F6784AE6243EF8E6FED39414748044
:1004FC009480784AE6FF4008EE24D4FDD20C8007A5
:10050C00243EF8E6FDC20C120C387B007A007957B9
:10051C0012086C7847E664017003784E0630091CAB
:10052C0078520806E6187001068606D394D0EE942D
:10053C00074010785276070876D1800778527600FB
:10054C00087600300616784B06E6C39464748094E3
:10055C0080400F7600A205B392058006784B76009A
:10056C00C20530021D784C0806E618700106FF869D
:10057C0006BE0B15BFB812784C7600087600C20286
:10058C008007784C7600087600D007D006D005D0CE
:10059C0004D003D002D001D000D0D0D082D083D0F0
:0405AC00F0D0E03279
:100D4300120ED8120E8D120E611205B0120341124B
:100D53000737120E0F120AB112099712068A80E999
:040D63007F057E008A
:100D6700EF1FAA0670011E4A600FE4FDEDC3940C45
:090D77007480948050EA0D80F3B1
:010D80002250
:020C6300A907DF
:100C6500E4FBEBC39408748094805012C294E9139A
:100C75009294120D63D294E9C313F90B80E47F05B6
:050C85007E00020D6776
:100D2000E4FBEBC39408748094805014C294ECC329
:100D300013FCD294309403430480120D630B80E2C1
:020D4000AF04FE
:010D4200228E
:100C8A00C20DD2947F0C7E00120D67C2947F507EF3
:100C9A0000120D67D2947F0A7E00120D67A2949209
:060CAA000D120D63A20D06
:010CB0002221
:100B2D00120C8A7FCC120C637F44120C637FC87E3B
:100B3D0000120D67120C8A7FCC120C637FBE120C53
:100B4D0063120D20A907120D20EFAD01FCEC12016F
:0B0B5D00AAE4FBFA7980783D02002634
:100E2B00C0F9A4B0999282F880908883C6A1868E6F
:0C0E3B00FFC8C78C010204081020408092
:100C38008F088D097DFF7FE0120EB6E508900E3F04
:100C480093FD7FC0120EB6E509900E2B93300C046D
:0B0C5800547F8000FD7FE0120EB622EA
:100E6100759850438E01538EFB75D7E675D6FF43B7
:070E71008E10D2ACD2AF22BB
:080F09008F993099FDC2992275
:060F110000007F21DFFE5D
:010F170022B7
:100D8100C2AFE4FEEEC3940874809480500DD290FB
:0D0D9100120F11C290120F110E80E9D2AFA7
:010D9E002232
:100B6800E4F5D9F5F9F5E9120D81D2DE30910330BB
:100B7800DFFAC2DE20DF1CAFF9EFFEADE9EDFFAC16
:100B880006E41201AA7B967A43798B783C120026F8
:070B98000201E3C2DF7F0050
:010B9F002233
:10002600EC4D6011E8497017ED33EC3304600DE4D4
:10003600FCFFFEFD22E933E8330470F802024F129A
:10004600021A58046009E4CC24815006285009029B
:100056000259284003020256C0E0EB4A7044B980B8
:1000660006D0E0FB020245EF4E701CBD8008EBFF98
:10007600EAFEE9FD80EBE98DF0A4FEE5F002010F52
:10008600E9CDF9EAFEEBFFEF89F0A4FCE5F0CE89B5
:10009600F0A42EFFE435F0CD89F0A42DFEE435F072
:1000A6008067EF4E7005BD80D780C3EF8BF0A4ACA0
:1000B600F0EE8BF0A42CFCE435F0F8EF8AF0A42CDB
:1000C600E5F038FCE433CB8DF0A42CFCE5F03BF8EE
:1000D600EE8AF0A42CFCE5F038F8E433CF89F0A4DE
:1000E6002CFCE5F038CF3400CE89F0A42FFFE5F0E4
:1000F6003EFEE433C98DF0A42EFEE5F039CD8AF03C
:10010600A42FFFE5F03EFEE43DFD33D0E0FB5007B3
:100116000BBB000F020259EC2CFCEF33FFEE33FE53
:06012600ED33FD02023181
:10012C0074F8CC6480CCC86480C8F58204604FC37A
:10013C00EB9FF5F0EA9E42F0E99D42F0E89C45F019
:10014C00603C501DE5825FFFE582D313CB5BCBF4A3
:10015C002B5582FB50280ABA002409B900200880CC
:10016C001DE5825BFBE582D313CF5FCFF4C3132F66
:10017C005582FF50090EBE00050DBD00010CC3EBEE
:10018C009FF5F0EA9E42F0E99D42F0E89C45F06054
:09019C0007CC4820E701B3EC2276
:1001A50075F020800E75F010800575F0087D007ED5
:1001B500007F003392D530D503120333EC33401062
:1001C500EF33FFEE33FEED33FDEC33FCD5F0ED22DE
:0E01D500E5F0247EA2D513CC92E7CDCEFF221A
:1001E300EDD2E7CD33EC3392D524814006E4FFFE14
:1001F300FDFC22FCE4CFCECDCC24E0501174FF8073
:10020300EDC3CC13CCCD13CDCE13CECF13CF04700F
:07021300F030D5DE020333D9
:10021A00E9D2E7C933E833F892D5EDD2E7CD33EC2A
:07022A0033FC5002B2D522A3
:10023100EC30E7100FBF000C0EBE00080DBD00042E
:100241000BEB6014A2D5EB13FCED92E7FD2274FFDA
:10025100FCFDFEFF22E480F8A2D574FF13FC7D8033
:03026100E480EF47
:030000000207E014
:0C07E000787FE4F6D8FD758160020827E0
:10026400BB010689828A83E0225002E722BBFE0298
:09027400E32289828A83E49322CB
:10027D00BB010CE58229F582E5833AF583E0225036
:10028D0006E92582F8E622BBFE06E92582F8E22280
:0D029D00E58229F582E5833AF583E493229A
:1002AA00BB010689828A83F0225002F722BBFE0133
:0202BA00F3222D
:1002BC00F8BB010DE58229F582E5833AF583E8F078
:1002CC00225006E92582C8F622BBFE05E92582C824
:0202DC00F2220C
:1002DE00BC000BBE0029EF8DF084FFADF022E4CC04
:1002EE00F875F008EF2FFFEE33FEEC33FCEE9DECCD
:1002FE00984005FCEE9DFE0FD5F0E9E4CEFD22ED13
:10030E00F8F5F0EE8420D21CFEADF075F008EF2F5C
:10031E00FFED33FD4007985006D5F0F222C398FD4D
:05032E000FD5F0EA22EA
:0E033300C3E49FFFE49EFEE49DFDE49CFC22DB
:0C0EF200EE30E707C3E49FFFE49EFE2201
:1007EC00020D43E493A3F8E493A34003F68001F2D3
:1007FC0008DFF48029E493A3F85407240CC8C3330E
:10080C00C4540F4420C8834004F456800146F6DFDC
:10081C00E4800B0102040810204080900C09E47E57
:10082C00019360BCA3FF543F30E509541FFEE493D1
:10083C00A360010ECF54C025E060A840B8E493A398
:10084C00FAE493A3F8E493A3C8C582C8CAC583CAC3
:10085C00F0A3C8C582C8CAC583CADFE9DEE780BE7B
:010C370000BC
:00000001FF
