:10070B00083F0A0A0A0A0A0A0A0A08280000000017
:10071B00000000000851000000000000000003234F
:0B072B000B0C0D0226141E02211E14F0
:1006CC0020003BD2001204DB8F4DE54A654DFF55EF
:1006DC004DF549E54DF45FF54F854D4AE54924FC50
:1006EC00701CA201B39201300107852126852226B8
:0F06FC0022E526C3952740068526218527222241
:1005A400200350D20312086212020A8F3C20011465
:1005B400753F0BE53C75F00A84FF75F00A8485F0FD
:1005C400458F4622753F0CE52675F00A8475F00ABE
:1005D4008485F042E52675F00A8485F043E52775A5
:1005E400F00A8475F00A8485F045E52775F00A84DD
:0405F40085F0462226
:01001E0022BF
:10091600E5506021C3E54C940AE54B94004016C2AD
:1009260002E4F54BF54CAF50FEFDFB7A007932122E
:060936000368E4F5502205
:100B2F00538E7F5389F0438905E4F58AF58CC28D86
:030B3F00D28C2233
:100ADC00538EBF53890F758B18758DFCC28FD28EB8
:050AEC00D2ABD2AF22E5
:03001B0002039449
:10039400C0E0C0F0C083C082C0D075D000C000C02F
:1003A40001C002C003C004C005C006C0070548E57B
:1003B4004870020547FFAE47BE010BBF9008754762
:1003C40000754800C203AE47AF487C007D0A1203A3
:1003D40005ED4C7002C200300208054CE54C700279
:1003E400054B053EE53E7002053DFFAE3DBE0319DB
:1003F400BFE816753D00753E00AF8CEFAD8AF53051
:10040400EDF531758C00758A00E5485407FBFF242F
:100414003FF8E6FD7C0074282BF8E6FB7A00120610
:100424008BE5485407FF2451F8E6FD7C001207864B
:10043400D007D006D005D004D003D002D001D0001C
:0B044400D0D0D082D083D0F0D0E032C6
:0300230002082EA2
:10082E00C0E0C0D075D000C000309813D202754B16
:10083E0000754C0074322550F8A6990550C298D315
:10084E00E550940A748094804003755000D000D017
:04085E00D0D0E032E4
:0C0B51007F237E337DB6DDFEDEFCDFFA84
:010B5D002275
:10093C00120862120B51120A58120ADC7B007A0060
:10094C00792312054E120AC51206CC1205A4120008
:06095C001E12091680F2D4
:100736000108000109FF010A00010BFF010C00017D
:020746000DFFA5
:10078600ED4C600FA8077401088002C333D8FC4201
:1007960008800EA8077401088002C333D8FCF452FF
:1007A60008E50865096013E508F4F580E5A0541F1F
:0A07B6004480F5A053A01F85080938
:0107C0002216
:1009D100EF6005430A408003530ABFE50A650B60D7
:1009E10011850A80E5A0541F44A0F5A053A01F85DE
:0209F1000A0BEF
:0109F30022E1
:1009F400EF6005430C108003530CEFE50C650D60AC
:100A040011850C80E5A0541F44A0F5A053A01F85B8
:020A14000C0DC7
:010A160022BD
:100AF100C0F9A4B0999282F88090FFC68C010204DB
:050B01000810204080F7
:10068B007580FFE5A0541F44E0F5A053A01FEF9029
:10069B000AFE93F580E5A0541F44C0F5A053A01F9C
:1006AB0074F12DF582740A3CF583E493F580EB4AE3
:1006BB00600353807FE5A0541F44E0F5A053A01FB7
:0106CB00220C
:1004DB00E4FFC2C4D2C2D2B5D2B420B3027F04208F
:1004EB00B2027F0520B1027F0620B0027F07D2C483
:1004FB00C2C2D2B5D2B420B3027F0820B2027F09A8
:10050B0020B1027F0A20B0027F0BD2C4D2C2C2B587
:10051B00D2B420B3027F0C20B2027F0D20B1027F38
:10052B000E20B0027F0FD2C4D2C2D2B5C2B420B358
:10053B00027F1020B2027F1120B1027F1220B00285
:02054B007F131C
:01054D00228B
:100A58007580FFE5A0541F4480F5A053A01FE4F55E
:0D0A680080E5A0541F44A0F5A053A01F225C
:100AC500759850438E01438E0475D7C775D6FE437E
:070AD5008E10D2ACD2AF225B
:080B6A008F993099FDC2992218
:100A7500E4FEEEC3940874809480500FC297EF1380
:0B0A850092A3EFC313FFD2970E80E78F
:010A90002243
:100B1B00C29300C29700D29300120A75AF05120A56
:040B2B0075C29322DA
:10074900E4FDC29300C29700D29300120A75E4FF38
:10075900EFC39408748094805011C297EDC313FDC0
:1007690030A303430580D2970F80E5C29300C29757
:0C07790000D29700C2A300D2A300AF057D
:010785002251
:06054E008B598A5A895BFB
:10055400E4FD7F8E120B1BE4FCECC39403748094C3
:10056400805036EC25E0FFC374849FFFAB59AA5A30
:10057400A95B8C827583001202A4FE75F00A84754F
:10058400F00A84ADF0EDC454F0FDEE75F00A84E594
:10059400F04DFD120B1B0C80C07D807F8E020B1B67
:0605F8008B0E8A0F891032
:1005FE00E4F511C3E511940374809480503CE51129
:10060E0025E0FFC374859FFF1207497512008F13F3
:10061E00E512C4F854F0C8E513C4540F4875F00A37
:10062E00A4FFE513540F2FAB0EAA0FA9108511824C
:0A063E007583001202E3051180B974
:01064800228F
:040A9100D2A07F0A66
:100A9500000000000000000000000000000000AEA3
:060AA500071FEE70EB22BA
:0F0B4200D2A1120A91C2A17F0A120A95C2A02263
:0C0B5E00C2A1120A91D2A17F0A020A95DE
:0207F900AD074A
:1007FB00E4FCECC39408748094805024C2A07F0A5C
:10080B00120A95ED30E704D2A18002C2A17F0A1231
:10081B000A95D2A0ED25E0FD7F0A120A950C80D235
:02082B00C2A069
:01082D0022A8
:10096200E4FCECC39408748094805017120A91ED51
:1009720025E0FD30A103430501C2A07F0A120A95BA
:050982000C80DFAF0551
:01098700224D
:1009AD00AB05120B427FA01207F91209BFAF03125C
:0209BD0007F938
:1009BF00120A91A2A1E433FDC2A07F0A120A95AFD9
:0109CF000522
:0109D0002204
:10000300C2A0EF24FF92A17F0A120A95120A91C29D
:08001300A0D2A17F0A020A95A8
:02098800AB07BB
:10098A00120B427F901209B4120B427F911207F99F
:10099A001209BF120962AD077F01120003120B5E32
:0209AA00AF0597
:0109AC002228
:100B0600AB07120B427F901207F91209BF7F411201
:050B160009B4020B5EB2
:100896008B148A1589161209ADAF181518EF601F4B
:1008A600AB140516E516AA157002051514F9120201
:1008B6008BFF1207F91209BF7FC8120A9580DA0268
:0208C6000B5EC7
:100649008B198A1A891B1209AD120B427FA1120755
:10065900F91209BFAF1D151DEF6024120962AB190C
:10066900051BE51BAA1A7002051A14F9EF1202D12B
:10067900E51D6004E4FF80027F0112000380D502BA
:020689000B5E06
:040A3A007F057E00B6
:100A3E00EF1FAA0670011E4A600FE4FDEDC3940C71
:090A4E007480948050EA0D80F3DD
:010A5700227C
:0208C800A9077E
:1008CA00E4FBEBC39408748094805012C294E91339
:1008DA009294120A3AD294E9C313F90B80E47F0581
:0508EA007E00020A3E41
:100A1700E4FBEBC39408748094805014C294ECC335
:100A270013FCD294309403430480120A3A0B80E2F9
:020A3700AF040A
:010A3900229A
:1008EF00C204D2947F0C7E00120A3EC2947F507EC7
:1008FF0000120A3ED2947F0A7E00120A3EA2949200
:06090F0004120A3AA204E2
:0109150022BF
:100862001208EF7FCC1208C87F441208C81208EFA2
:100872007FCC1208C87FBE1208C8120A17A9071235
:100882000A17EFAD01FCEC1201D1E4FBFA79807892
:040892004102012FEF
:060B720000007F21DFFE00
:010B7800225A
:100AAB00E4FEEEC3940874809480500DD290120B28
:090ABB0072C290120B720E80E968
:010AC400220F
:1007C100E4F5D9F5E9F5F9120AABD2DE309103303F
:1007D100DFFAC2DE20DF1CAFF9EFFEADE9EDFFACC1
:1007E10006E41201D17B967A43798B783C1200267C
:0707F10002020AC2DF7F00D3
:0107F80022DE
:10002600EC4D6011E8497017ED33EC3304600DE4D4
:10003600FCFFFEFD22E933E8330470F80202761273
:10004600024158046009E4CC248150062850090274
:10005600028028400302027DC0E0EB4A7044B9806A
:1000660006D0E0FB02026CEF4E701CBD8008EBFF71
:10007600EAFEE9FD80EBE98DF0A4FEE5F002010F52
:10008600E9CDF9EAFEEBFFEF89F0A4FCE5F0CE89B5
:10009600F0A42EFFE435F0CD89F0A42DFEE435F072
:1000A6008067EF4E7005BD80D780C3EF8BF0A4ACA0
:1000B600F0EE8BF0A42CFCE435F0F8EF8AF0A42CDB
:1000C600E5F038FCE433CB8DF0A42CFCE5F03BF8EE
:1000D600EE8AF0A42CFCE5F038F8E433CF89F0A4DE
:1000E6002CFCE5F038CF3400CE89F0A42FFFE5F0E4
:1000F6003EFEE433C98DF0A42EFEE5F039CD8AF03C
:10010600A42FFFE5F03EFEE43DFD33D0E0FB5007B3
:100116000BBB000F020280EC2CFCEF33FFEE33FE2C
:06012600ED33FD0202585A
:10012C00020280EC5D046005E8590470030202765B
:10013C00120241580460F6EC4860F2EC7004FDFECB
:10014C00FF22C860DB2481C85009C39860025006A6
:10015C0002027D9850CAF582E9294B4A7005AB82A0
:10016C0002026C75F0007C1A7880C3EF9BEE9AED5E
:10017C0099400DC3EF9BFFEE9AFEED99FDE842F01E
:10018C00DC23ACF0D0E0FFD0E0FED0E0FDAB822071
:10019C00E7101BEB60BAEC2CFCEF33FFEE33FEEDFB
:1001AC0033FD020258E803F830E705C0F075F000A3
:1001BC00EF2FFFEE33FEED33FD40B830E7C280AADF
:1001CC0075F020800E75F010800575F0087D007EAE
:1001DC00007F003392D530D50312035AEC33401014
:1001EC00EF33FFEE33FEED33FDEC33FCD5F0ED22B7
:0E01FC00E5F0247EA2D513CC92E7CDCEFF22F3
:10020A00EDD2E7CD33EC3392D524814006E4FFFEEC
:10021A00FDFC22FCE4CFCECDCC24E0501174FF804B
:10022A00EDC3CC13CCCD13CDCE13CECF13CF0470E8
:07023A00F030D5DE02035A8B
:10024100E9D2E7C933E833F892D5EDD2E7CD33EC03
:0702510033FC5002B2D5227C
:10025800EC30E7100FBF000C0EBE00080DBD000407
:100268000BEB6014A2D5EB13FCED92E7FD2274FFB3
:10027800FCFDFEFF22E480F8A2D574FF13FC7D800C
:03028800E480EF20
:0300000002044FA8
:0C044F00787FE4F6D8FD75815B0204960E
:10028B00BB010689828A83E0225002E722BBFE0271
:09029B00E32289828A83E49322A4
:1002A400BB010CE58229F582E5833AF583E022500F
:1002B40006E92582F8E622BBFE06E92582F8E22259
:0D02C400E58229F582E5833AF583E4932273
:1002D100BB010689828A83F0225002F722BBFE010C
:0202E100F32206
:1002E300F8BB010DE58229F582E5833AF583E8F051
:1002F300225006E92582C8F622BBFE05E92582C8FD
:02030300F222E4
:10030500BC000BBE0029EF8DF084FFADF022E4CCDC
:10031500F875F008EF2FFFEE33FEEC33FCEE9DECA5
:10032500984005FCEE9DFE0FD5F0E9E4CEFD22EDEB
:10033500F8F5F0EE8420D21CFEADF075F008EF2F35
:10034500FFED33FD4007985006D5F0F222C398FD26
:050355000FD5F0EA22C3
:0E035A00C3E49FFFE49EFEE49DFDE49CFC22B4
:10036800EF4E6012EF60010EEDBB010B89828A83AC
:10037800F0A3DFFCDEFA2289F05007F709DFFCA9B9
:0C038800F022BBFEFCF309DFFCA9F02210
:10045B0002093CE493A3F8E493A34003F68001F272
:10046B0008DFF48029E493A3F85407240CC8C333A2
:10047B00C4540F4420C8834004F456800146F6DF71
:10048B00E4800B010204081020408090070BE47EEF
:10049B00019360BCA3FF543F30E509541FFEE49366
:1004AB00A360010ECF54C025E060A840B8E493A32D
:1004BB00FAE493A3F8E493A3C8C582C8CAC583CA58
:1004CB00F0A3C8C582C8CAC583CADFE9DEE780BE10
:0107480000B0
:00000001FF
