:100C58008D80E5A0541FFEEF42068EA0E5A0541F2C
:020C6800F5A0F5
:010C6A002267
:100B5E00E4FEEEC3940874809480500FC297EF1396
:0B0B6E0092A3EFC313FFD2970E80E7A5
:010B79002259
:100C4400C29300C29700D29300120B5EAF05120B41
:040C54005EC29322C7
:1008DD00E4FDC29300C29700D29300120B5EE4FFB9
:1008ED00EFC39408748094805011C297EDC313FD2B
:1008FD0030A303430580D2970F80E5C29300C297C2
:0C090D0000D29700C2A300D2A300AF05E7
:0109190022BB
:0607B7008B298A2A892B20
:1007BD00E4FD7F8E120C447D807F80120C44E4FC9E
:1007CD00ECC39403748094805036EC25E0FFC37421
:1007DD00849FFFAB29AA2AA92B8C82758300120254
:1007ED0075FE75F00A8475F00A84ADF0EDC454F011
:1007FD00FDEE75F00A84E5F04DFD120C440C80C041
:07080D007D807F8E020C4488
:06089C008B298A2A892B3A
:1008A200C2AFE4FCECC3940374809480502AEC251C
:1008B200E0FFC374859FFF1208DDEFC4540F75F08B
:1008C2000AA4FEEF540F2EAB29AA2AA92B8C8275FB
:0A08D20083001202B40C80CCD2AFF8
:0108DC0022F9
:040BE900D2A07F0A0D
:100BED00000000000000000000000000000000AE4A
:060BFD00071FEE70EB2261
:0F0C6B00D2A1120BE9C2A17F0A120BEDC2A02287
:0C0C9500C2A1120BE9D2A17F0A020BEDF4
:02098D00AD07B4
:10098F00E4FCECC39408748094805024C2A07F0AC6
:10099F00120BEDED30E704D2A18002C2A17F0A1243
:1009AF000BEDD2A0ED25E0FD7F0A120BED0C80D2EE
:0209BF00C2A0D4
:0109C1002213
:100A7000E4FCECC39408748094805017120BE9EDE9
:100A800025E0FD30A103430501C2A07F0A120BED52
:050A90000C80DFAF0542
:010A9500223E
:100ABB00AB05120C6B7FA012098D120ACDAF03127E
:020ACB00098D93
:100ACD00120BE9A2A1E433FDC2A07F0A120BEDAF18
:010ADD000513
:010ADE0022F5
:10000300C2A0EF24FF92A17F0A120BED120BE9C2EB
:08001300A0D2A17F0A020BED4F
:020A9600AB07AC
:100A9800120C6B7F90120AC2120C6B7F9112098D97
:100AA800120ACD120A70AD077F01120003120C95CD
:020AB800AF0588
:010ABA002219
:100C1A00AB07120C6B7F9012098D120ACD7F41121D
:050C2A000AC2020C9556
:10085A008B188A19891A120ABB120C6B7FA112090A
:10086A008D120ACDAF1C151CEF6024120A70AB184A
:10087A00051AE51AAA197002051914F9EF1202A24B
:10088A00E51C60047F018002E4FF12000380D502A8
:02089A000C95BB
:100814008B228A238924120ABBAF261526EF601F78
:10082400AB220524E524AA237002052314F912023D
:100834005CFF12098D120ACD7FC8120BED80DA120B
:100844000C957FFF120BED7FFF120BED7FFF120B58
:06085400ED7FFF020BED39
:0E0C7A007DFF7F80120C58E4FD7FA0020C5815
:1006CF00E4FF538EEFC2C4D2B4D2B5D2C220B3026C
:1006DF007F0420B2027F0520B1027F0620B0027F87
:1006EF0007C2C2D2B4D2B5D2C420B3027F0820B29F
:1006FF00027F0920B1027F0A20B0027F0BC2B5D260
:10070F00B4D2C4D2C220B3027F0C20B2027F0D201C
:10071F00B1027F0E20B0027F0FC2B4D2B5D2C4D2C5
:10072F00C220B3027F1020B2027F1120B1027F12CC
:0B073F0020B0027F1375B0FF438E1046
:01074A00228C
:0C09C200012C00012EFF012D00012FFF71
:10074B0090000112027525E0FF12025C4FFF900032
:10075B000212027525E025E04FFF9000031202758F
:10076B0033333354F84FFF900004120275C454F026
:10077B004FFF900005120275C43354E04FFF9000F9
:10078B0006120275C4333354C04FFF900007120298
:10079B0075FEC433333354804FF52C652E600CE556
:0C07AB002CF4FD7F80120C58852C2E22AF
:0B0CA1007DFF7F80120C58E4F52E222E
:100B7A00300805432D408003532DBFE52D652F60B6
:0C0B8A000AAD2D7FA0120C58852D2F22E3
:100B9600300705432D108003532DEFE52D652F609B
:0C0BA6000AAD2D7FA0120C58852D2F22C7
:100BB200300905432D208003532DDFE52D652F607D
:0C0BC2000AAD2D7FA0120C58852D2F22AB
:1009CE0008341010101010101010083F0000000016
:1009DE00000000000331171900011717020800006C
:0809EE000212000002150000D6
:10052100C3E514940A7480948050030205B9E4F57C
:10053100141206CF8F11E50F6511FF5511F50AE56C
:1005410011F45FF51085110FE50A24F3601C24FDF9
:10055100601C14603224057050783006E6D3940292
:10056100748094804043E4F6803FB200803B783051
:10057100E6640270340517D3E517946374809480A0
:10058100402775176380227830E6FF7E0064027091
:10059100101517C3E517940A7480948050037517DA
:1005A1000AEF64014E7002D2057830E664017008EA
:0905B100E51064117002C205227C
:10033900C3783EE694C818E694005003020451E4D9
:10034900F608F6FB7A00793112089C12091A8F0E09
:100359008E0D8D0C8C0B7830E614606114700302DD
:1003690004282402600302045178347611087601C6
:10037900087610087610087610AF0EAE0DAD0CACED
:100389000B1201DBEF75F00A8475F00A847839A63F
:10039900F0EF75F00A84E5F0242C08F6E4FFFE7D01
:1003A900207C41AB0EAA0DA90CA80B12001E12014C
:1003B900DB7C007D0A1202D6783BA6052278342020
:1003C900052776110876020876107831E6FF75F070
:1003D9000A8475F00A847837A6F0EF75F00A840864
:1003E900A6F008761278328025761108760208760A
:1003F900107832E6FF75F00A8475F00A847837A61A
:10040900F0EF75F00A8408A6F00876127833E6FF53
:1004190075F00A8475F00A84783AA6F0EF8022789C
:1004290034761108760308761008761008761008D5
:100439007610E51775F00A8475F00A8408A6F0E5C8
:090449001775F00A8408A6F022E0
:10064600AC17E41201A7AB0EAA0DA90CA80B120158
:100656002460064004D2038002C203A2039207125A
:100666000B967932E77833667005FE7F0180047E4B
:10067600007F00EF4E7009D204A2049207120B9677
:100686007932E77833667005FE7F0180047E007F4D
:1006960000EF4E7008D201A20133783FF620000623
:1006A600784076018004E47840F6A203300401B372
:1006B6007E0040047F0180027F00EF64014E7008D7
:0906C600D202A202337841F622AF
:100C2F00538EBF53890F758B18758DFCC28FD28E63
:050C3F00D2ABD2AF2290
:03001B000204528A
:10045200C0E0C0F0C083C082C0D075D000C000C070
:1004620001C002C003C004C005C006C0070514785D
:100472003E06E618700106783C06E664087001F64E
:10048200783CE62434F8E6FED394147480948078A1
:100492003CE6FF4008EE24D4FDD20680072434F85F
:1004A200E6FDC2061209F77B007A00793F12074B7C
:1004B2003004190516E51670020515C39488E51572
:1004C20094134008C2047515007516003001190511
:1004D20009E50970020508C39488E50894134008E9
:1004E200C2017508007509003002190513E5137081
:1004F200020512C39464E51294004008C202751208
:1005020000751300D007D006D005D004D003D00266
:0F051200D001D000D0D0D082D083D0F0D0E03252
:0C0C88007F237E337DB6DDFEDEFCDFFA4C
:010C9400223D
:100B020012091A120C88120C7A120C2F7B007A002E
:100B120079311207B712052112033912064680F500
:040B22007F057E00CD
:100B2600EF1FAA0670011E4A600FE4FDEDC3940C88
:090B36007480948050EA0D80F3F4
:010B3F002293
:020A2200A90722
:100A2400E4FBEBC39408748094805012C294E913DD
:100A34009294120B22D294E9C313F90B80E47F053C
:050A44007E00020B26FC
:100ADF00E4FBEBC39408748094805014C294ECC36D
:100AEF0013FCD294309403430480120B220B80E248
:020AFF00AF0442
:010B010022D1
:100A4900C207D2947F0C7E00120B26C2947F507E7F
:100A590000120B26D2947F0A7E00120B26A29492D2
:060A690007120B22A20798
:010A6F002264
:10091A00120A497FCC120A227F44120A227FC87E19
:10092A0000120B26120A497FCC120A227FBE120A33
:10093A0022120ADFA907120ADFEFAD01FCEC12014D
:0B094A00A2E4FBFA7980783D02001E59
:100BCE00C0F9A4B0999282F880908883C6A1868ECF
:0B0BDE00FFC1BF01020408102040808E
:1009F7008F278D287DFF7FE0120C58E527900BE1AC
:100A070093FD7FC0120C58E528900BCE9330060457
:0B0A1700547F8000FD7FE0120C58228D
:100C0300759850438E01538EFB75D7E675D6FF4317
:070C13008E10D2ACD2AF221B
:080CAC008F993099FDC29922D5
:060CB40000007F21DFFEBD
:010CBA002217
:100B4000C2AFE4FEEEC3940874809480500DD2903E
:0D0B5000120CB4C290120CB40E80E9D2AFAA
:010B5D002275
:10095500E4F5D9F5F9F5E9120B40D2DE3091033013
:10096500DFFAC2DE20DF1CAFF9EFFEADE9EDFFAC2B
:1009750006E41201A27B967A43798B783C12001E1D
:070985000201DBC2DF7F006D
:01098C002248
:10001E00EC4D6011E8497017ED33EC3304600DE4DC
:10002E00FCFFFEFD22E933E8330470F802024712AA
:10003E00021258046009E4CC2481500628500902AB
:10004E00025128400302024EC0E0EB4A7044B980D0
:10005E0006D0E0FB02023DEF4E701CBD8008EBFFA8
:10006E00EAFEE9FD80EBE98DF0A4FEE5F002010762
:10007E00E9CDF9EAFEEBFFEF89F0A4FCE5F0CE89BD
:10008E00F0A42EFFE435F0CD89F0A42DFEE435F07A
:10009E008067EF4E7005BD80D780C3EF8BF0A4ACA8
:1000AE00F0EE8BF0A42CFCE435F0F8EF8AF0A42CE3
:1000BE00E5F038FCE433CB8DF0A42CFCE5F03BF8F6
:1000CE00EE8AF0A42CFCE5F038F8E433CF89F0A4E6
:1000DE002CFCE5F038CF3400CE89F0A42FFFE5F0EC
:1000EE003EFEE433C98DF0A42EFEE5F039CD8AF044
:1000FE00A42FFFE5F03EFEE43DFD33D0E0FB5007BC
:10010E000BBB000F020251EC2CFCEF33FFEE33FE63
:06011E00ED33FD02022991
:1001240074F8CC6480CCC86480C8F58204604FC382
:10013400EB9FF5F0EA9E42F0E99D42F0E89C45F021
:10014400603C501DE5825FFFE582D313CB5BCBF4AB
:100154002B5582FB50280ABA002409B900200880D4
:100164001DE5825BFBE582D313CF5FCFF4C3132F6E
:100174005582FF50090EBE00050DBD00010CC3EBF6
:100184009FF5F0EA9E42F0E99D42F0E89C45F0605C
:0901940007CC4820E701B3EC227E
:10019D0075F020800E75F010800575F0087D007EDD
:1001AD00007F003392D530D50312032BEC33401072
:1001BD00EF33FFEE33FEED33FDEC33FCD5F0ED22E6
:0E01CD00E5F0247EA2D513CC92E7CDCEFF2222
:1001DB00EDD2E7CD33EC3392D524814006E4FFFE1C
:1001EB00FDFC22FCE4CFCECDCC24E0501174FF807B
:1001FB00EDC3CC13CCCD13CDCE13CECF13CF047018
:07020B00F030D5DE02032BE9
:10021200E9D2E7C933E833F892D5EDD2E7CD33EC32
:0702220033FC5002B2D522AB
:10022900EC30E7100FBF000C0EBE00080DBD000436
:100239000BEB6014A2D5EB13FCED92E7FD2274FFE2
:10024900FCFDFEFF22E480F8A2D574FF13FC7D803B
:03025900E480EF4F
:030000000205BA3C
:0C05BA00787FE4F6D8FD7581460206014A
:10025C00BB010689828A83E0225002E722BBFE02A0
:09026C00E32289828A83E49322D3
:10027500BB010CE58229F582E5833AF583E022503E
:1002850006E92582F8E622BBFE06E92582F8E22288
:0D029500E58229F582E5833AF583E49322A2
:1002A200BB010689828A83F0225002F722BBFE013B
:0202B200F32235
:1002B400F8BB010DE58229F582E5833AF583E8F080
:1002C400225006E92582C8F622BBFE05E92582C82C
:0202D400F22214
:1002D600BC000BBE0029EF8DF084FFADF022E4CC0C
:1002E600F875F008EF2FFFEE33FEEC33FCEE9DECD5
:1002F600984005FCEE9DFE0FD5F0E9E4CEFD22ED1B
:10030600F8F5F0EE8420D21CFEADF075F008EF2F64
:10031600FFED33FD4007985006D5F0F222C398FD55
:050326000FD5F0EA22F2
:0E032B00C3E49FFFE49EFEE49DFDE49CFC22E3
:1005C600020B02E493A3F8E493A34003F68001F23E
:1005D60008DFF48029E493A3F85407240CC8C33336
:1005E600C4540F4420C8834004F456800146F6DF05
:1005F600E4800B01020408102040809009C2E47ECA
:10060600019360BCA3FF543F30E509541FFEE493F9
:10061600A360010ECF54C025E060A840B8E493A3C0
:10062600FAE493A3F8E493A3C8C582C8CAC583CAEB
:10063600F0A3C8C582C8CAC583CADFE9DEE780BEA3
:0109F6000000
:00000001FF
