:101060008D80E5A0541FFEEF42068EA0E5A0541F20
:02107000F5A0E9
:01107200225B
:100F5500E4FEEEC3940874809480500FC297EF139B
:0B0F650092A3EFC313FFD2970E80E7AA
:010F7000225E
:10104C00C29300C29700D29300120F55AF05120F36
:04105C0055C29322C4
:100CDE00E4FDC29300C29700D29300120F55E4FFB9
:100CEE00EFC39408748094805011C297EDC313FD26
:100CFE0030A303430580D2970F80E5C29300C297BD
:0C0D0E0000D29700C2A300D2A300AF05E2
:010D1A0022B6
:060B5E008B3A8A3B893C42
:100B6400E4FD7F8E12104C7D807F8012104CE4FCDB
:100B7400ECC39403748094805036EC25E0FFC37476
:100B8400849FFFAB3AAA3BA93C8C82758300120375
:100B940094FE75F00A8475F00A84ADF0EDC454F047
:100BA400FDEE75F00A84E5F04DFD12104C0C80C08A
:070BB4007D807F8E02104CD2
:060C9D008B0D8A0E890F89
:100CA300C2AFE4FCECC3940374809480502AEC2517
:100CB300E0FFC374859FFF120CDEEFC4540F75F081
:100CC3000AA4FEEF540F2EAB0DAA0EA90F8C82754A
:0A0CD30083001203D30C80CCD2AFD3
:010CDD0022F4
:040FC500D2A07F0A2D
:100FC900000000000000000000000000000000AE6A
:060FD900071FEE70EB2281
:0F107300D2A1120FC5C2A17F0A120FC9C2A022BB
:0C109000C2A1120FC5D2A17F0A020FC935
:020D8E00AD07AF
:100D9000E4FCECC39408748094805024C2A07F0AC1
:100DA000120FC9ED30E704D2A18002C2A17F0A125E
:100DB0000FC9D2A0ED25E0FD7F0A120FC90C80D229
:020DC000C2A0CF
:010DC200220E
:100E6A00E4FCECC39408748094805017120FC5ED0B
:100E7A0025E0FD30A103430501C2A07F0A120FC974
:050E8A000C80DFAF0544
:010E8F002240
:100EB500AB051210737FA0120D8E120EC7AF031271
:020EC5000D8E90
:100EC700120FC5A2A1E433FDC2A07F0A120FC9AF5A
:010ED7000515
:010ED80022F7
:10000300C2A0EF24FF92A17F0A120FC9120FC5C22B
:08001300A0D2A17F0A020FC96F
:020E9000AB07AE
:100E92001210737F90120EBC1210737F91120D8E7E
:100EA200120EC7120E6AAD077F01120003121090D4
:020EB200AF058A
:010EB400221B
:10100D00AB071210737F90120D8E120EC77F411217
:05101D000EBC02109062
:100C5B008B108A118912120EB51210737FA1120D0F
:100C6B008E120EC7AF141514EF6024120E6AAB1060
:100C7B000512E512AA117002051114F9EF1203C146
:100C8B00E51460047F018002E4FF12000380D502AB
:020C9B001090B7
:100C15008B158A168917120EB5AF191519EF601FB6
:100C2500AB150517E517AA167002051614F9120378
:100C35007BFF120D8E120EC77FC8120FC980DA1204
:100C450010907FFF120FC97FFF120FC97FFF120F90
:060C5500C97FFF020FC978
:0E1082007DFF7F80121060E4FD7FA0021060F1
:100BBB00E4FF538EEFC2C4D2C2D2B520B3027F047E
:100BCB0020B2027F0520B1027F0620B0027F07D240
:100BDB00C4C2C2D2B520B3027F0820B2027F092063
:100BEB00B1027F0A20B0027F0BC2C4D2C2D2B520A1
:100BFB00B3027F0C20B2027F0D20B1027F0E20B01A
:090C0B00027F0F75B0FF438E104B
:010C140022BD
:0C0DC300011A00011CFF011B00011DFFB4
:100AF20090000112039425E0FF12037B4FFF900048
:100B02000212039425E025E04FFF900003120394A4
:100B120033333354F84FFF900004120394C454F05B
:100B22004FFF900005120394C43354E04FFF90002E
:100B320006120394C4333354C04FFF9000071203CC
:100B420094FEC433333354804FF51A651C600CE5B0
:0C0B52001AF4FD7F80121060851A1C222E
:0B109C007DFF7F80121060E4F51C2235
:100F7100300005431B408003531BBFE51B651D600B
:0C0F81000AAD1B7FA0121060851B1D2212
:100F8D00300105431B108003531BEFE51B651D60EE
:0C0F9D000AAD1B7FA0121060851B1D22F6
:100FA900300205431B208003531BDFE51B651D60D1
:0C0FB9000AAD1B7FA0121060851B1D22DA
:100DCF0008431010101010101010084E00000000F3
:100DDF0000000000033D0D0305023107D002330070
:010DEF000003
:1007CE00C3E537940A7480948050030208CDE4F593
:1007DE0037120BBB8F2EE52C652EFF552EF523E51C
:1007EE002EF45FF52D852E2CE52324FB601924FDB8
:1007FE006030147003020883240560030208CD786C
:10080E0056E6045403F6227856E6FF7E0064017025
:10081E000463290122EF64034E60030208CD6328AE
:10082E0001227856E6640160030208CDAF29FEEF7F
:10083E00701E74E82532F53274033531F531C3E597
:10084E00329428E53194234076753123753228226F
:10085E00EF64014E706974642534F534E43533F574
:10086E0033C3E5349484E533648094834051753307
:10087E0003753484227856E66401701E741825328E
:10088E00F53274FC3531F531D3E53294E8E5319427
:10089E0003502C7531037532E822E5296401701F6F
:1008AE00749C2534F53474FF3533F533D3E5349425
:1008BE007CE5336480947C50067533FC75347C2261
:1004A400750A03C3784DE6945018E694005003028D
:1004B40007CDE4F608F6FB7A00793D120C9DE5348D
:1004C4002527F530E5333526F52F7856E6147003E5
:1004D4000205A61470030206C7147003020702245F
:1004E4000360030207CD7843760F08761008761070
:1004F400C3E52F648094805003020583AE2FAF3090
:100504007C277D1012044A7C007D0A12044A784636
:10051400A605AE2FAF307C037DE812044A7C007D33
:100524000A12044A7847A605AE2FAF307C007D64DA
:1005340012044A7C007D0A12044A7848A605AE2FAC
:10054400AF307C007D0A12044A7C007D0A12044A02
:100554007849A605AE2FAF307C007D0A12044A7894
:100564004AA6057443250AF8E660030207CD7443DE
:10057400250AF87610AF0A050AEF640770E52278B9
:100584004976140876147443250AF8E660030207D2
:10059400CD7443250AF87610AF0A050AEF64057096
:1005A400E52278437611E529FB7A00707708760115
:1005B400087610087610AE31AF327C037DE8120362
:1005C400F57C007D0A1203F57847A605AE31AF32FB
:1005D4007C007D641203F57C007D0A1203F57848E3
:1005E400A605AE31AF327C007D0A1203F57C007D96
:1005F4000A1203F57849A605AE31AF327C007D0AB4
:100604001203F5784AA6057847E660030207CD761B
:100614001008E660030207CD761008E660030207BF
:0D062400CD761022EB64014A60030207CD81
:1006310078447602087610087610087610C3E53300
:1006410064809480400885330B85340C800BC3E4AF
:100651009534F50CE49533F50BAE0BAF0C7C007DB6
:10066100641203F57C007D0A1203F57848A605AEF5
:100671000BAF0C7C007D0A1203F57C007D0A12038E
:10068100F57849A605AE0BAF0C7C007D0A1203F587
:10069100784AA6057848E67008761008E670027672
:1006A10010C3E5336480948040030207CD7848E6A7
:1006B1006410600280077849E664106004187612BD
:0506C1002278497612C9
:1006C60022783DE6FF75F00A8475F00A847843A621
:1006D600F0EF75F00A8408A6F0087612783EE6FF79
:1006E60075F00A8475F00A847846A6F0EF75F00A6C
:1006F6008408A6F0087612783F0207B77843761387
:10070600E528FB7A00706E08760F087610AE2AAFE1
:100716002B7C277D101203F57C007D0A1203F578E9
:1007260046A605AE2AAF2B7C037DE81203F57C00B6
:100736007D0A1203F57847A605AE2AAF2B7C007D0D
:10074600641203F57C007D0A1203F57848A605AE0F
:100756002AAF2B7C007D0A1203F57C007D0A12036A
:10076600F57849A605AE2AAF2B7C007D0A1203F563
:10077600784AA60522EB64014A704C7844760A78DA
:1007860040E6FF75F00A8475F00A847845A6F0EF16
:1007960075F00A8408A6F07841E6FF75F00A8475BC
:1007A600F00A847847A6F0EF75F00A8408A6F07878
:1007B60042E6FF75F00A8475F00A847849A6F0EFE0
:0707C60075F00A8408A6F09B
:0107CD002209
:1008CE007856E67005A203338001E4784EF6C3E550
:1008DE002F648094805006784F7601801FAE31AF22
:1008EE0032E4FCFDAB27AA26A925A824D312048E38
:1008FE004006A203E4338001E4784FF6E47FF47EF1
:10090E0001FDFCAB27AA26A925A824D312048E50DC
:10091E00087535007536338078AE31AF32E4FCFDA4
:10092E00AB27AA26A925A824C312048E4008753524
:10093E00007536FF805BE527240CFFE52634FEFEAE
:10094E00E52534FFFDE52434FFFC1202BCE4FBFA7E
:10095E00794C7843120116C004C005C006C007E5E5
:10096E0032240CFDE53134FEFCE41202C1A804A9C8
:10097E0005AA06AB07D007D006D005D00412021F79
:10098E00E4FBFA794C78421200251202FA8E358F6A
:06099E0036AF3602100D19
:10102200538EBF53890F758B18758DFCC28FD28E6C
:05103200D2ABD2AF2299
:10103700538E7F5389F0438905E4F58AF58CC28D79
:05104700D28CD2AF22A3
:03001B000209A433
:1009A400C0E0C0F0C083C082C0D075D000C000C019
:1009B40001C002C003C004C005C006C007053778E3
:1009C4004D06E618700106784B06E664087001F6D9
:1009D400784BE62443F8E6FED3941474809480782C
:1009E4004BE6FF4008EE24D4FDD20580072443F8EB
:1009F400E6FDC205120DF17B007A00794E120AF26F
:100A04000522E52270020521FFAE21BE0323BFE8C3
:100A140020752100752200AF8CEFFEAD8AEDFFEE4C
:100A24003395E08F278E26F525F524758C00758A7D
:100A3400000539E539AE38700205381464C84E70C3
:100A440006F538F539B203D007D006D005D004D066
:100A540003D002D001D000D0D0D082D083D0F0D047
:020A6400E0327E
:100FDF00121082121022120FF61210371207CE12B1
:070FEF0004A41208CE80F5F6
:040EFC007F057E00F0
:100F0000EF1FAA0670011E4A600FE4FDEDC3940CAA
:090F10007480948050EA0D80F316
:010F190022B5
:020E1C00A90724
:100E1E00E4FBEBC39408748094805012C294E913DF
:100E2E009294120EFCD294E9C313F90B80E47F0561
:050E3E007E00020F0020
:100ED900E4FBEBC39408748094805014C294ECC36F
:100EE90013FCD294309403430480120EFC0B80E26D
:020EF900AF0444
:010EFB0022D4
:100E4300C204D2947F0C7E00120F00C2947F507EA6
:100E530000120F00D2947F0A7E00120F00A2949218
:060E630004120EFCA204C3
:010E69002266
:100D1B00120E437FCC120E1C7F44120E1C7FC87E1A
:100D2B0000120F00120E437FCC120E1C7FBE120E50
:100D3B001C120ED9A907120ED9EFAD01FCEC120251
:0B0D4B00C1E4FBFA7980783D0201163C
:100F3800C0F9A4B0999282F880908883C6A1868E61
:0D0F4800FF8CBF89C7010204081020408003
:100DF1008F088D097DFF7FE0121060E508900F4D8F
:100E010093FD7FC0121060E509900F3893300504FF
:0B0E1100547F8000FD7FE01210602283
:100FF600759850438E01538EFB75D7E675D6FF4321
:071006008E10D2ACD2AF2224
:0810A7008F993099FDC29922D6
:0610AF0000007F21DFFEBE
:0110B5002218
:100F1A00C2AFE4FEEEC3940874809480500DD29060
:0D0F2A001210AFC2901210AF0E80E9D2AFCE
:010F37002297
:100D5600E4F5D9F5F9F5E9120F1AD2DE3091033030
:100D6600DFFAC2DE20DF1CAFF9EFFEADE9EDFFAC26
:100D760006E41202C17B967A43798B783C120116FF
:070D86000202FAC2DF7F0048
:010D8D002243
:10001E00020366E86480F8E933E83360110460F0A7
:10002E00ED33EC337009E8FCE9FDEAFEEBFF220448
:10003E0060DED3EB9FEA9EE99DE8C2E78CF0C2F743
:10004E0095F0400CE8CCF8E9CDF9EACEFAEBCFFB0F
:10005E0012033185D0F05804700320D5B3E8047034
:10006E00075002B2D502037092D5EC0460F7E4CCCF
:10007E00C0E0C398F8603B94186008400DD0E0FBD8
:10008E00020348E4FBFAC9FC8028E830E406E4C920
:10009E00FBE4CAFCE830E305E4C9CACBFCE854072C
:1000AE006010F8C3E913F9EA13FAEB13FBEC13FC37
:1000BE00D8F130F52FC3E49CFCEF9BFFEE9AFEEDDA
:1000CE0099FDD0E0FBEF4E4D4C701222DB03020384
:1000DE006DEC2CFCEF33FFEE33FEED33FDED30E730
:1000EE00EB020348EF2BFFEE3AFEED39FDD0E0FBBD
:1000FE0050130BBB0003020370ED13FDEE13FEEF66
:08010E0013FFEC13FC0203488F
:10011600EC4D6011E8497017ED33EC3304600DE4E3
:10012600FCFFFEFD22E933E8330470F80203661291
:10013600033158046009E4CC248150062850090292
:10014600037028400302036DC0E0EB4A7044B98097
:1001560006D0E0FB02035CEF4E701CBD8008EBFF8F
:10016600EAFEE9FD80EBE98DF0A4FEE5F00201FF71
:10017600E9CDF9EAFEEBFFEF89F0A4FCE5F0CE89C4
:10018600F0A42EFFE435F0CD89F0A42DFEE435F081
:100196008067EF4E7005BD80D780C3EF8BF0A4ACAF
:1001A600F0EE8BF0A42CFCE435F0F8EF8AF0A42CEA
:1001B600E5F038FCE433CB8DF0A42CFCE5F03BF8FD
:1001C600EE8AF0A42CFCE5F038F8E433CF89F0A4ED
:1001D6002CFCE5F038CF3400CE89F0A42FFFE5F0F3
:1001E6003EFEE433C98DF0A42EFEE5F039CD8AF04B
:1001F600A42FFFE5F03EFEE43DFD33D0E0FB5007C3
:100206000BBB000F020370EC2CFCEF33FFEE33FE4A
:06021600ED33FD02034878
:10021C00020370EC5D046005E85904700302036688
:10022C00120331580460F6EC4860F2EC7004FDFEE9
:10023C00FF22C860DB2481C85009C39860025006B5
:10024C0002036D9850CAF582E9294B4A7005AB82BE
:10025C0002035C75F0007C1A7880C3EF9BEE9AED7C
:10026C0099400DC3EF9BFFEE9AFEED99FDE842F02D
:10027C00DC23ACF0D0E0FFD0E0FED0E0FDAB822080
:10028C00E7101BEB60BAEC2CFCEF33FFEE33FEED0A
:10029C0033FD020348E803F830E705C0F075F000C1
:1002AC00EF2FFFEE33FEED33FD40B830E7C280AAEE
:1002BC0075F020800E75F010800575F0087D007EBD
:1002CC00007F003392D530D503120480EC334010FC
:1002DC00EF33FFEE33FEED33FDEC33FCD5F0ED22C6
:0E02EC00E5F0247EA2D513CC92E7CDCEFF2202
:1002FA00EDD2E7CD33EC3392D524814006E4FFFEFC
:10030A00FDFC22FCE4CFCECDCC24E0501174FF805A
:10031A00EDC3CC13CCCD13CDCE13CECF13CF0470F7
:07032A00F030D5DE02048073
:10033100E9D2E7C933E833F892D5EDD2E7CD33EC12
:0703410033FC5002B2D5228B
:10034800EC30E7100FBF000C0EBE00080DBD000416
:100358000BEB6014A2D5EB13FCED92E7FD2274FFC2
:10036800FCFDFEFF22E480F8A2D574FF13FC7D801B
:03037800E480EF2F
:03000000020A668B
:0C0A6600787FE4F6D8FD758156020AADD9
:10037B00BB010689828A83E0225002E722BBFE0280
:09038B00E32289828A83E49322B3
:10039400BB010CE58229F582E5833AF583E022501E
:1003A40006E92582F8E622BBFE06E92582F8E22268
:0D03B400E58229F582E5833AF583E4932282
:1003C100BB010689828A83F0225002F722BBFE011B
:0203D100F32215
:1003D300F8BB010DE58229F582E5833AF583E8F060
:1003E300225006E92582C8F622BBFE05E92582C80C
:0203F300F222F4
:1003F500BC000BBE0029EF8DF084FFADF022E4CCEC
:10040500F875F008EF2FFFEE33FEEC33FCEE9DECB4
:10041500984005FCEE9DFE0FD5F0E9E4CEFD22EDFA
:10042500F8F5F0EE8420D21CFEADF075F008EF2F44
:10043500FFED33FD4007985006D5F0F222C398FD35
:050445000FD5F0EA22D2
:10044A00C2D5EC30E709B2D5E4C39DFDE49CFCEECD
:10045A0030E715B2D5E4C39FFFE49EFE1203F5C34D
:10046A00E49DFDE49CFC80031203F530D507C3E448
:06047A009FFFE49EFE223C
:0E048000C3E49FFFE49EFEE49DFDE49CFC228D
:10048E00EB9FF5F0EA9E42F0E99D42F0EC6480C8E5
:06049E0064809845F02285
:100A7200020FDFE493A3F8E493A34003F68001F2AC
:100A820008DFF48029E493A3F85407240CC8C33385
:100A9200C4540F4420C8834004F456800146F6DF54
:100AA200E4800B0102040810204080900DC3E47E14
:100AB200019360BCA3FF543F30E509541FFEE49349
:100AC200A360010ECF54C025E060A840B8E493A310
:100AD200FAE493A3F8E493A3C8C582C8CAC583CA3B
:100AE200F0A3C8C582C8CAC583CADFE9DEE780BEF3
:010DF0000002
:00000001FF
