:100E6C008D80E5A0541FFEEF42068EA0E5A0541F16
:020E7C00F5A0DF
:010E7E002251
:100D3400E4FEEEC3940874809480500FC297EF13BE
:0B0D440092A3EFC313FFD2970E80E7CD
:010D4F002281
:100E3000C29300C29700D29300120D34AF05120D79
:040E400034C2932203
:100ADE00E4FDC29300C29700D29300120D34E4FFDE
:100AEE00EFC39408748094805011C297EDC313FD28
:100AFE0030A303430580D2970F80E5C29300C297BF
:0C0B0E0000D29700C2A300D2A300AF05E4
:010B1A0022B8
:06092B008B2A8A2B892CA7
:10093100E4FD7F8E120E307D807F80120E30E4FC4C
:10094100ECC39403748094805036EC25E0FFC374AB
:10095100849FFFAB2AAA2BA92C8C827583001203DA
:1009610015FE75F00A8475F00A84ADF0EDC454F0FB
:10097100FDEE75F00A84E5F04DFD120E300C80C0DD
:070981007D807F8E020E3025
:060A9D008B2D8A2E892F2B
:100AA300C2AFE4FCECC3940374809480502AEC2519
:100AB300E0FFC374859FFF120ADEEFC4540F75F085
:100AC3000AA4FEEF540F2EAB2DAA2EA92F8C8275EC
:0A0AD30083001203540C80CCD2AF54
:010ADD0022F6
:040DA400D2A07F0A50
:100DA800000000000000000000000000000000AE8D
:060DB800071FEE70EB22A4
:0F0E7F00D2A1120DA4C2A17F0A120DA8C2A022F7
:0C0E9C00C2A1120DA4D2A17F0A020DA871
:020B8E00AD07B1
:100B9000E4FCECC39408748094805024C2A07F0AC3
:100BA000120DA8ED30E704D2A18002C2A17F0A1283
:100BB0000DA8D2A0ED25E0FD7F0A120DA80C80D271
:020BC000C2A0D1
:010BC2002210
:100C6600E4FCECC39408748094805017120DA4ED34
:100C760025E0FD30A103430501C2A07F0A120DA89D
:050C86000C80DFAF054A
:010C8B002246
:100CB100AB05120E7F7FA0120B8E120CC3AF031275
:020CC1000B8E98
:100CC300120DA4A2A1E433FDC2A07F0A120DA8AFA6
:010CD300051B
:010CD40022FD
:10000300C2A0EF24FF92A17F0A120DA8120DA4C271
:08001300A0D2A17F0A020DA892
:020C8C00AB07B4
:100C8E00120E7F7F90120CB8120E7F7F91120B8E78
:100C9E00120CC3120C66AD077F01120003120E9CDC
:020CAE00AF0590
:010CB0002221
:100E0600AB07120E7F7F90120B8E120CC37F41121E
:050E16000CB8020E9C67
:100A5B008B1B8A1C891D120CB1120E7F7FA1120BEE
:100A6B008E120CC3AF1F151FEF6024120C66AB1B4D
:100A7B00051DE51DAA1C7002051C14F9EF1203429B
:100A8B00E51F60047F018002E4FF12000380D502A2
:020A9B000E9CAF
:1009D1008B218A228923120CB1AF251525EF601FC7
:1009E100AB210523E523AA227002052214F9120284
:1009F100FCFF120B8E120CC37FC8120DA880DA12F5
:100A01000E9C7FFF120DA87FFF120DA87FFF120D14
:060A1100A87FFF020DA802
:0E0E8E007DFF7F80120E6CE4FD7FA0020E6CD3
:100DD800E4FF20B3027F0420B2027F0520B1027F26
:060DE8000620B0027F07A7
:010DEE0022E2
:0C0BEE000126000128FF0127000129FF5B
:1008BF0090000112031525E0FF1202FC4FFF90007C
:1008CF000212031525E025E04FFF900003120315D8
:1008DF0033333354F84FFF900004120315C454F010
:1008EF004FFF900005120315C43354E04FFF9000E3
:1008FF0006120315C4333354C04FFF900007120381
:10090F0015FEC433333354804FF5266528600CE54C
:0C091F0026F4FD7F80120E6C8526282235
:0B0EA8007DFF7F80120E6CE4F5282215
:100D500030020543274080035327BFE527652960FC
:0C0D60000AAD277FA0120E6C8527292207
:100D6C0030030543271080035327EFE527652960DF
:0C0D7C000AAD277FA0120E6C85272922EB
:100D880030040543272080035327DFE527652960C2
:0C0D98000AAD277FA0120E6C85272922CF
:090EB30000000000000000000036
:100BFA0008351010101010101010084000000000E6
:0D0C0A00000000000332000000C181C18025
:10098800C3E514940A74809480403DE4F514120D74
:10099800D88F0FE50D650FFF550FF50AE50FF45FCA
:1009A800F50E850F0DE50A24FB600E14600F146028
:1009B800122403701363190122631A0122A200B3DF
:0909C800920022A201B392012267
:1004BD00C3783FE694C818E69400500302066FE433
:1004CD00F608F67F43120C8CAC07E4120247E4FBEE
:1004DD00FA794C78421201278F188E178D168C15CC
:1004ED00E51A700BF513F512F511751040800C859A
:1004FD00181385171285161185151020011A7835D8
:10050D0076100876100876100876100876100876A2
:10051D001008761008761022E519147003020614DF
:10052D0004600302066F7835760F087610AE0BAFB8
:10053D000CE4FCFD7BA07A867901F8D31203D95027
:10054D001CAE0BAF0CE4FCFDF8120A17E47B0AFAA3
:10055D00F9F8120A17AF037837A6078004783776B3
:10056D0010C3E50C9410E50B94274018AE0BAF0C9F
:10057D007C277D101203767C007D0A120376783875
:10058D00A605800478387610C3E50C94E8E50B9445
:10059D00034018AE0BAF0C7C037DE81203767C0094
:1005AD007D0A1203767839A605800478397610C352
:1005BD00E50C9464E50B94004018AE0BAF0C7C0079
:1005CD007D641203767C007D0A120376783AA605C7
:1005DD008004783A7610C3E50C940AE50B9400403C
:1005ED0018AE0BAF0C7C007D0A1203767C007D0AE1
:1005FD00120376783BA6058004783B7610AE0BAFE0
:10060D000C7C007D0A8054783576110876100876BA
:10061D0010087610087610AF18AE17AD16AC15127F
:10062D00027BEF242C783AF6E4FFFE7DC87C42ABCA
:10063D0018AA17A916A81512001E12027BAB07AA3D
:10064D00067C007D0A1203767C007D0A1203767803
:10065D003BA6057C007D0AAF03AE02120376783C03
:03066D00A60522BD
:10067000200015E47840F608F608F608F608F608B3
:10068000F608F608F602076EE4FFEFC394077480DD
:100690009480500974402FF8E4F60F80EDE5197846
:1006A000407006F608760180057601E408F6E4FF5E
:1006B000FE7DC07C3FAB18AA17A916A8151201C46D
:1006C00050028052E4FFFE7DC07C3FAB18AA17A900
:1006D00016A8151201C44016E4FFFE7D207C40AB35
:1006E00018AA17A916A8151201C45002802EE4FFFB
:1006F000FE7D207C40AB18AA17A916A8151201C4CC
:10070000401AE4FFFE7D607C40AB18AA17A916A82A
:10071000151201C45006E47842F68004784276014E
:10072000C3E50C94E8E50B94035002802CC3E50C60
:1007300094E8E50B9403400CE50C9488E50B9413C6
:100740005002801BC3E50C9488E50B94134010E520
:100750000C9410E50B94275006E47843F680047857
:10076000437601E51A78447003F680027601E4FFCF
:10077000FE7D4C7C42AB13AA12A911A81012001ED8
:0607800012027B020E06CE
:100E1B00538EBF53890F758B18758DFCC28FD28E75
:050E2B00D2ABD2AF22A2
:100E4400538E7F5389F0438905758AFF758CFFC2E1
:040E54008DD28C228D
:03001B0002078653
:10078600C0E0C0F0C083C082C0D075D000C000C039
:1007960001C002C003C004C005C006C00705147826
:1007A6003F06E618700106783D06E664087001F615
:1007B600783DE62435F8E6FED39414748094807868
:1007C6003DE6FF4008EE24D4FDD20680072435F826
:1007D600E6FDC206120BC33000087B007A007940A2
:1007E60080067BFF7A0E79B31208BF0509E509700A
:1007F600020508FFAE08BE0319BFE81675080075A6
:100806000900AF8CEFAD8AF50BEDF50C758C007514
:100816008A00D007D006D005D004D003D002D0017C
:0D082600D000D0D0D082D083D0F0D0E0320E
:100E5800120E8E120E1B120E441209881204BD12B5
:040E6800067080F59B
:040CF8007F057E00F6
:100CFC00EF1FAA0670011E4A600FE4FDEDC3940CB1
:090D0C007480948050EA0D80F31C
:010D150022BB
:020C1800A9072A
:100C1A00E4FBEBC39408748094805012C294E913E5
:100C2A009294120CF8D294E9C313F90B80E47F056D
:050C3A007E00020CFC2D
:100CD500E4FBEBC39408748094805014C294ECC375
:100CE50013FCD294309403430480120CF80B80E279
:020CF500AF044A
:010CF70022DA
:100C3F00C205D2947F0C7E00120CFCC2947F507EB2
:100C4F0000120CFCD2947F0A7E00120CFCA294922C
:060C5F0005120CF8A205CD
:010C6500226C
:100B1B00120C3F7FCC120C187F44120C187FC87E2E
:100B2B0000120CFC120C3F7FCC120C187FBE120C67
:100B3B0018120CD5A907120CD5EFAD01FCEC120263
:0B0B4B0042E4FBFA7980783D02001EB6
:100DBE00C0F9A4B0999282F880908883C6A1868EDD
:0A0DCE00FFC101020408102040805C
:100BC3008F308D317DFF7FE0120E6CE530900DD0BC
:100BD30093FD7FC0120E6CE531900DBE9330060479
:0B0BE300547F8000FD7FE0120E6C22AA
:100DEF00759850438E01538EFB75D7E675D6FF432A
:070DFF008E10D2ACD2AF222E
:080EBC008F993099FDC29922C3
:060EC40000007F21DFFEAB
:010ECA002205
:100D1600C2AFE4FEEEC3940874809480500DD29066
:0D0D2600120EC4C290120EC40E80E9D2AFAE
:010D3300229D
:100B5600E4F5D9F5F9F5E9120D16D2DE3091033038
:100B6600DFFAC2DE20DF1CAFF9EFFEADE9EDFFAC28
:100B760006E41202427B967A43798B783C12001E79
:070B860002027BC2DF7F00C9
:010B8D002245
:10001E00EC4D6011E8497017ED33EC3304600DE4DC
:10002E00FCFFFEFD22E933E8330470F80202E7120A
:10003E0002B258046009E4CC24815006285009020B
:10004E0002F12840030202EEC0E0EB4A7044B98090
:10005E0006D0E0FB0202DDEF4E701CBD8008EBFF08
:10006E00EAFEE9FD80EBE98DF0A4FEE5F002010762
:10007E00E9CDF9EAFEEBFFEF89F0A4FCE5F0CE89BD
:10008E00F0A42EFFE435F0CD89F0A42DFEE435F07A
:10009E008067EF4E7005BD80D780C3EF8BF0A4ACA8
:1000AE00F0EE8BF0A42CFCE435F0F8EF8AF0A42CE3
:1000BE00E5F038FCE433CB8DF0A42CFCE5F03BF8F6
:1000CE00EE8AF0A42CFCE5F038F8E433CF89F0A4E6
:1000DE002CFCE5F038CF3400CE89F0A42FFFE5F0EC
:1000EE003EFEE433C98DF0A42EFEE5F039CD8AF044
:1000FE00A42FFFE5F03EFEE43DFD33D0E0FB5007BC
:10010E000BBB000F0202F1EC2CFCEF33FFEE33FEC3
:06011E00ED33FD0202C9F1
:100124000202F1EC5D046005E8590470030202E781
:100134001202B2580460F6EC4860F2EC7004FDFE62
:10014400FF22C860DB2481C85009C39860025006AE
:100154000202EE9850CAF582E9294B4A7005AB8237
:100164000202DD75F0007C1A7880C3EF9BEE9AEDF5
:1001740099400DC3EF9BFFEE9AFEED99FDE842F026
:10018400DC23ACF0D0E0FFD0E0FED0E0FDAB822079
:10019400E7101BEB60BAEC2CFCEF33FFEE33FEED03
:1001A40033FD0202C9E803F830E705C0F075F0003A
:1001B400EF2FFFEE33FEED33FD40B830E7C280AAE7
:1001C40074F8CC6480CCC86480C8F58204604FC3E2
:1001D400EB9FF5F0EA9E42F0E99D42F0E89C45F081
:1001E400603C501DE5825FFFE582D313CB5BCBF40B
:1001F4002B5582FB50280ABA002409B90020088034
:100204001DE5825BFBE582D313CF5FCFF4C3132FCD
:100214005582FF50090EBE00050DBD00010CC3EB55
:100224009FF5F0EA9E42F0E99D42F0E89C45F060BB
:0902340007CC4820E701B3EC22DD
:10023D0075F020800E75F010800575F0087D007E3C
:10024D00007F003392D530D5031203CBEC33401031
:10025D00EF33FFEE33FEED33FDEC33FCD5F0ED2245
:0E026D00E5F0247EA2D513CC92E7CDCEFF2281
:10027B00EDD2E7CD33EC3392D524814006E4FFFE7B
:10028B00FDFC22FCE4CFCECDCC24E0501174FF80DA
:10029B00EDC3CC13CCCD13CDCE13CECF13CF047077
:0702AB00F030D5DE0203CBA9
:1002B200E9D2E7C933E833F892D5EDD2E7CD33EC92
:0702C20033FC5002B2D5220B
:1002C900EC30E7100FBF000C0EBE00080DBD000496
:1002D9000BEB6014A2D5EB13FCED92E7FD2274FF42
:1002E900FCFDFEFF22E480F8A2D574FF13FC7D809B
:0302F900E480EFAF
:03000000020833C0
:0C083300787FE4F6D8FD75814702087A52
:1002FC00BB010689828A83E0225002E722BBFE0200
:09030C00E32289828A83E4932232
:10031500BB010CE58229F582E5833AF583E022509D
:1003250006E92582F8E622BBFE06E92582F8E222E7
:0D033500E58229F582E5833AF583E4932201
:10034200BB010689828A83F0225002F722BBFE019A
:02035200F32294
:10035400F8BB010DE58229F582E5833AF583E8F0DF
:10036400225006E92582C8F622BBFE05E92582C88B
:02037400F22273
:10037600BC000BBE0029EF8DF084FFADF022E4CC6B
:10038600F875F008EF2FFFEE33FEEC33FCEE9DEC34
:10039600984005FCEE9DFE0FD5F0E9E4CEFD22ED7A
:1003A600F8F5F0EE8420D21CFEADF075F008EF2FC4
:1003B600FFED33FD4007985006D5F0F222C398FDB5
:0503C6000FD5F0EA2252
:100A1700C2D5E830E70FB2D5E4C39BFBE49AFAE40A
:100A270099F9E498F8EC30E717B2D5120A4D120499
:100A37002BE4C39BFBE49AFAE499F9E498F8800362
:100A470012042B30D50DE4C39FFFE49EFEE49DFD09
:040A5700E49CFC22FD
:0E03CB00C3E49FFFE49EFEE49DFDE49CFC2243
:1003D900EB9FF5F0EA9E42F0E99D42F0EC6480C89B
:0603E90064809845F0223B
:10083F00020E58E493A3F8E493A34003F68001F269
:10084F0008DFF48029E493A3F85407240CC8C333BA
:10085F00C4540F4420C8834004F456800146F6DF89
:10086F00E4800B0102040810204080900BEEE47E20
:10087F00019360BCA3FF543F30E509541FFEE4937E
:10088F00A360010ECF54C025E060A840B8E493A345
:10089F00FAE493A3F8E493A3C8C582C8CAC583CA70
:1008AF00F0A3C8C582C8CAC583CADFE9DEE780BE28
:010C170000DC
:1003EF0075F008758200EF2FFFEE33FECD33CDCCC5
:1003FF0033CCC58233C5829BED9AEC99E582984048
:10040F000CF582EE9BFEED9AFDEC99FC0FD5F0D624
:10041F00E4CEFBE4CDFAE4CCF9A88222B800C1B94E
:10042F000059BA002DEC8BF084CFCECDFCE5F0CB8C
:10043F00F97818EF2FFFEE33FEED33FDEC33FCEBC5
:10044F0033FB10D703994004EB99FB0FD8E5E4F980
:10045F00FA227818EF2FFFEE33FEED33FDEC33FC6D
:10046F00C933C910D7059BE99A4007EC9BFCE99A61
:10047F00F90FD8E0E4C9FAE4CCFB2275F010EF2FA6
:10048F00FFEE33FEED33FDCC33CCC833C810D707A6
:10049F009BEC9AE899400AED9BFDEC9AFCE899F8E1
:0E04AF000FD5F0DAE4CDFBE4CCFAE4C8F92274
:00000001FF
