:100A420008400A0A0A0A0A0A0A0A082600000000DE
:100A52000000000008560000000000000000032211
:090A62000B0C0D012519012119ED
:10087000200067D2001207FD8F4EE54B654EFF55F5
:100880004EF54AE54EF45FF554854E4BE54A24F8A3
:10089000602714603424057041055EE55E640370D2
:1008A00002F55EAF5E7E00EF64017003852125EFE7
:1008B00064024E702585252122E55E6401701B15BA
:1008C00025E525F47014F52522E55E6401700B051D
:0B08D00025E525646470037525632294
:0C0E4A007F237E337DB6DDFEDEFCDFFA88
:010E56002279
:100505003003030205E0D203120B5A8F3D8E3C8D5A
:100515003B8C3AE55E146057146077240260030251
:1005250005E075400BAF3DAE3CAD3BAC3A12037BED
:10053500EF75F00A8475F00A8485F044EF75F00ACA
:100545008485F045E4FFFE7DC87C42AB3DAA3CA90D
:100555003BA83A12011E12037BEF75F00A8475F071
:100565000A8485F046EF75F00A8485F04780697541
:10057500400C75450A75440AE52575F00A8475F041
:100585000A8485F046E52575F00A8485F047E4F58B
:100595002B2275400DAF53AE52AD51AC5012037BBB
:1005A5008F45E4FFFE7DC87C42AB53AA52A951A8F2
:1005B5005012011E12037BAB07AA067C007D0A12AE
:1005C50004767C007D0A1204768D467C007D0AAF98
:0C05D50003AE021204768D47752B012244
:100C0E00E5556021C3E54D940AE54C94004016C2AB
:100C1E0001E4F54CF54DAF55FEFDFB7A007930122F
:060C2E0004D9E4F5552293
:1005E100200227AC21E4120347AB3DAA3CA93BA85A
:1005F1003A1202C4E4500AF553F552F551F5508010
:1006010071F553F5527551A0803FE4FFFE7DA07C4A
:1006110041AB3DAA3CA93BA83A1202C4500DE4F5F6
:1006210053F55275518075503F8047E4FFFE7D20A0
:100631007C42AB3DAA3CA93BA83A1202C4600F40E0
:100641000DE4F553F55275518075504080247F9A21
:100651007E997D197C3EAB3DAA3CA93BA83A12018B
:100661001EE4FBFAF978C012002D8F538E528D5182
:100671008C50E4FFFE7D4C7C42AB53AA52A951A899
:100681005012011E12037B120DFF2002047F018014
:10069100027F008F56E4FFEFC3940374809480506F
:1006A10013EFB55E047E0180027E0074572FF8A619
:0406B100060F80E3CD
:0106B5002222
:100E2800538E7F5389F0438905E4F58AF58CC28D8A
:030E3800D28C2237
:100DEA00538EBF53890F758B18758DFCC28FD28EA7
:050DFA00D2ABD2AF22D4
:03001B000206B624
:1006B600C0E0C0F0C083C082C0D075D000C000C00A
:1006C60001C002C003C004C005C006C0070549E555
:1006D6004970020548FFAE48BE010BBF9008754839
:1006E60000754900C203AE48AF497C007D0A12047A
:1006F60076ED4C7002C200300108054DE54D7002E2
:10070600054C053FE53F7002053EFFAE3EBE0319B0
:10071600BFE816753E00753F00AF8CEFAD8AF52E2B
:10072600EDF52F758C00758A00E5495407FBFF240B
:1007360040F8E6FD7C0074262BF8E6FB7A001209E9
:10074600C4E5495407FF2456F8E6FD7C00120A7EEC
:10075600D007D006D005D004D003D002D001D000F7
:0B076600D0D0D082D083D0F0D0E032A1
:03002300020B26A7
:100B2600C0E0C0D075D000C000309813D201754C1B
:100B360000754D0074302555F8A6990555C298D311
:100B4600E555940A748094804003755500D000D012
:040B5600D0D0E032E9
:100C3400120B5A120E4A120D50120DEA7B007A0062
:100C440079221208DB120DBD120870120505120577
:060C5400E1120C0E80F21B
:100A6B000108000109FF010A00010BFF010C000145
:020A7B000DFF6D
:100A7E00ED4C600FA8077401088002C333D8FC4206
:100A8E0008800EA8077401088002C333D8FCF45204
:100A9E0008E50865096013E508F4F580E5A0541F24
:0A0AAE004480F5A053A01F8508093D
:010AB800221B
:100CC900EF6005430A408003530ABFE50A650B60DC
:100CD90011850A80E5A0541F44A0F5A053A01F85E3
:020CE9000A0BF4
:010CEB0022E6
:100CEC00EF6005430C108003530CEFE50C650D60B1
:100CFC0011850C80E5A0541F44A0F5A053A01F85BE
:020D0C000C0DCC
:010D0E0022C2
:100DD400C0F9A4B0999282F88090FFC68C88010271
:060DE4000408102040800D
:1009C4007580FFE5A0541F44E0F5A053A01FEF90ED
:1009D4000DE293F580E5A0541F44C0F5A053A01F79
:1009E40074D42DF582740D3CF583E493F580EB4AC1
:1009F400600353807FE5A0541F44E0F5A053A01F7B
:010A040022CF
:1007FD00E4FFC2C4D2C2D2B5D2B420B3027F04206A
:10080D00B2027F0520B1027F0620B0027F07D2C45D
:10081D00C2C2D2B5D2B420B3027F0820B2027F0982
:10082D0020B1027F0A20B0027F0BD2C4D2C2C2B562
:10083D00D2B420B3027F0C20B2027F0D20B1027F13
:10084D000E20B0027F0FD2C4D2C2D2B5C2B420B333
:10085D00027F1020B2027F1120B1027F1220B00260
:02086D007F13F7
:01086F002266
:100D50007580FFE5A0541F4480F5A053A01FE4F563
:0D0D600080E5A0541F44A0F5A053A01F2261
:100DBD00759850438E01438E0475D7C775D6FE4383
:070DCD008E10D2ACD2AF2260
:080E63008F993099FDC299221C
:100D6D00E4FEEEC3940874809480500FC297EF1385
:0B0D7D0092A3EFC313FFD2970E80E794
:010D88002248
:100E1400C29300C29700D29300120D6DAF05120D5C
:040E24006DC29322E6
:100A0500E4FDC29300C29700D29300120D6DE4FF7E
:100A1500EFC39408748094805011C297EDC313FD01
:100A250030A303430580D2970F80E5C29300C29798
:0C0A350000D29700C2A300D2A300AF05BE
:010A41002292
:0608DB008B5F8A60896159
:1008E100E4FD7F8E120E14E4FCECC3940374809437
:1008F100805036EC25E0FFC374849FFFAB5FAA6094
:10090100A9618C82758300120415FE75F00A847545
:10091100F00A84ADF0EDC454F0FDEE75F00A84E503
:10092100F04DFD120E140C80C07D807F8E020E14DE
:060931008B0E8A0F8910F5
:10093700E4F511C3E511940374809480503CE511EC
:1009470025E0FFC374859FFF120A057512008F13F8
:10095700E512C4F854F0C8E513C4540F4875F00AFB
:10096700A4FFE513540F2FAB0EAA0FA91085118210
:0A097700758300120454051180B9C5
:010981002253
:040D8900D2A07F0A6B
:100D8D00000000000000000000000000000000AEA8
:060D9D00071FEE70EB22BF
:0F0E3B00D2A1120D89C2A17F0A120D8DC2A02271
:0C0E5700C2A1120D89D2A17F0A020D8DEC
:020AF100AD074F
:100AF300E4FCECC39408748094805024C2A07F0A61
:100B0300120D8DED30E704D2A18002C2A17F0A123B
:100B13000D8DD2A0ED25E0FD7F0A120D8D0C80D244
:020B2300C2A06E
:010B250022AD
:100C5A00E4FCECC39408748094805017120D89ED5B
:100C6A0025E0FD30A103430501C2A07F0A120D8DC4
:050C7A000C80DFAF0556
:010C7F002252
:100CA500AB05120E3B7FA0120AF1120CB7AF03126F
:020CB5000AF142
:100CB700120D89A2A1E433FDC2A07F0A120D8DAFE8
:010CC7000527
:010CC8002209
:10000300C2A0EF24FF92A17F0A120D8D120D89C2A7
:08001300A0D2A17F0A020D8DAD
:020C8000AB07C0
:100C8200120E3B7F90120CAC120E3B7F91120AF1B6
:100C9200120CB7120C5AAD077F01120003120E5745
:020CA200AF059C
:010CA400222D
:100DFF00AB07120E3B7F90120AF1120CB77F411214
:050E0F000CAC020E57BF
:100B8E008B148A158916120CA5AF181518EF601F55
:100B9E00AB140516E516AA157002051514F9120305
:100BAE00FCFF120AF1120CB77FC8120D8D80DA020B
:020BBE000E57D0
:100982008B198A1A891B120CA5120E3B7FA1120A1F
:10099200F1120CB7AF1D151DEF6024120C5AAB19E2
:1009A200051BE51BAA1A7002051A14F9EF1204427C
:1009B200E51D6004E4FF80027F0112000380D5027E
:0209C2000E57CE
:040D32007F057E00BB
:100D3600EF1FAA0670011E4A600FE4FDEDC3940C76
:090D46007480948050EA0D80F3E2
:010D4F002281
:020BC000A90783
:100BC200E4FBEBC39408748094805012C294E9133E
:100BD2009294120D32D294E9C313F90B80E47F058B
:050BE2007E00020D364B
:100D0F00E4FBEBC39408748094805014C294ECC33A
:100D1F0013FCD294309403430480120D320B80E203
:020D2F00AF040F
:010D3100229F
:100BE700C204D2947F0C7E00120D36C2947F507ED1
:100BF70000120D36D2947F0A7E00120D36A294920F
:060C070004120D32A204EC
:010C0D0022C4
:100B5A00120BE77FCC120BC07F44120BC0120BE7BB
:100B6A007FCC120BC07FBE120BC0120D0FA9071249
:100B7A000D0FEFAD01FCEC120342E4FBFA79807829
:040B8A0041020227FB
:060E6B0000007F21DFFE04
:010E7100225E
:100DA300E4FEEEC3940874809480500DD290120E2A
:090DB3006BC290120E6B0E80E978
:010DBC002214
:100AB900E4F5D9F5E9F5F9120DA3D2DE3091033049
:100AC900DFFAC2DE20DF1CAFF9EFFEADE9EDFFACC6
:100AD90006E41203427B967A43798B783C12011E15
:070AE90002037BC2DF7F0066
:010AF00022E3
:100026000203E7E86480F8E933E83360110460F01E
:10003600ED33EC337009E8FCE9FDEAFEEBFF220440
:1000460060DED3EB9FEA9EE99DE8C2E78CF0C2F73B
:1000560095F0400CE8CCF8E9CDF9EACEFAEBCFFB07
:100066001203B285D0F05804700320D5B3E80470AB
:10007600075002B2D50203F192D5EC0460F7E4CC46
:10008600C0E0C398F8603B94186008400DD0E0FBD0
:100096000203C9E4FBFAC9FC8028E830E406E4C997
:1000A600FBE4CAFCE830E305E4C9CACBFCE8540724
:1000B6006010F8C3E913F9EA13FAEB13FBEC13FC2F
:1000C600D8F130F52FC3E49CFCEF9BFFEE9AFEEDD2
:1000D60099FDD0E0FBEF4E4D4C701222DB0302037C
:1000E600EEEC2CFCEF33FFEE33FEED33FDED30E7A7
:1000F600EB0203C9EF2BFFEE3AFEED39FDD0E0FB34
:1001060050130BBB00030203F1ED13FDEE13FEEFDC
:0801160013FFEC13FC0203C906
:10011E00EC4D6011E8497017ED33EC3304600DE4DB
:10012E00FCFFFEFD22E933E8330470F80203E71208
:10013E0003B258046009E4CC248150062850090209
:10014E0003F12840030203EEC0E0EB4A7044B9808D
:10015E0006D0E0FB0203DDEF4E701CBD8008EBFF06
:10016E00EAFEE9FD80EBE98DF0A4FEE5F002020760
:10017E00E9CDF9EAFEEBFFEF89F0A4FCE5F0CE89BC
:10018E00F0A42EFFE435F0CD89F0A42DFEE435F079
:10019E008067EF4E7005BD80D780C3EF8BF0A4ACA7
:1001AE00F0EE8BF0A42CFCE435F0F8EF8AF0A42CE2
:1001BE00E5F038FCE433CB8DF0A42CFCE5F03BF8F5
:1001CE00EE8AF0A42CFCE5F038F8E433CF89F0A4E5
:1001DE002CFCE5F038CF3400CE89F0A42FFFE5F0EB
:1001EE003EFEE433C98DF0A42EFEE5F039CD8AF043
:1001FE00A42FFFE5F03EFEE43DFD33D0E0FB5007BB
:10020E000BBB000F0203F1EC2CFCEF33FFEE33FEC1
:06021E00ED33FD0203C9EF
:100224000203F1EC5D046005E8590470030203E77E
:100234001203B2580460F6EC4860F2EC7004FDFE60
:10024400FF22C860DB2481C85009C39860025006AD
:100254000203EE9850CAF582E9294B4A7005AB8235
:100264000203DD75F0007C1A7880C3EF9BEE9AEDF3
:1002740099400DC3EF9BFFEE9AFEED99FDE842F025
:10028400DC23ACF0D0E0FFD0E0FED0E0FDAB822078
:10029400E7101BEB60BAEC2CFCEF33FFEE33FEED02
:1002A40033FD0203C9E803F830E705C0F075F00038
:1002B400EF2FFFEE33FEED33FD40B830E7C280AAE6
:1002C40074F8CC6480CCC86480C8F58204604FC3E1
:1002D400EB9FF5F0EA9E42F0E99D42F0E89C45F080
:1002E400603C501DE5825FFFE582D313CB5BCBF40A
:1002F4002B5582FB50280ABA002409B90020088033
:100304001DE5825BFBE582D313CF5FCFF4C3132FCC
:100314005582FF50090EBE00050DBD00010CC3EB54
:100324009FF5F0EA9E42F0E99D42F0E89C45F060BA
:0903340007CC4820E701B3EC22DC
:10033D0075F020800E75F010800575F0087D007E3B
:10034D00007F003392D530D5031204CBEC3340102F
:10035D00EF33FFEE33FEED33FDEC33FCD5F0ED2244
:0E036D00E5F0247EA2D513CC92E7CDCEFF2280
:10037B00EDD2E7CD33EC3392D524814006E4FFFE7A
:10038B00FDFC22FCE4CFCECDCC24E0501174FF80D9
:10039B00EDC3CC13CCCD13CDCE13CECF13CF047076
:0703AB00F030D5DE0204CBA7
:1003B200E9D2E7C933E833F892D5EDD2E7CD33EC91
:0703C20033FC5002B2D5220A
:1003C900EC30E7100FBF000C0EBE00080DBD000495
:1003D9000BEB6014A2D5EB13FCED92E7FD2274FF41
:1003E900FCFDFEFF22E480F8A2D574FF13FC7D809A
:0303F900E480EFAE
:0300000002077183
:0C077100787FE4F6D8FD7581610207B8BE
:1003FC00BB010689828A83E0225002E722BBFE02FF
:09040C00E32289828A83E4932231
:10041500BB010CE58229F582E5833AF583E022509C
:1004250006E92582F8E622BBFE06E92582F8E222E6
:0D043500E58229F582E5833AF583E4932200
:10044200BB010689828A83F0225002F722BBFE0199
:02045200F32293
:10045400F8BB010DE58229F582E5833AF583E8F0DE
:10046400225006E92582C8F622BBFE05E92582C88A
:02047400F22272
:10047600BC000BBE0029EF8DF084FFADF022E4CC6A
:10048600F875F008EF2FFFEE33FEEC33FCEE9DEC33
:10049600984005FCEE9DFE0FD5F0E9E4CEFD22ED79
:1004A600F8F5F0EE8420D21CFEADF075F008EF2FC3
:1004B600FFED33FD4007985006D5F0F222C398FDB4
:0504C6000FD5F0EA2251
:0E04CB00C3E49FFFE49EFEE49DFDE49CFC2242
:1004D900EF4E6012EF60010EEDBB010B89828A833A
:1004E900F0A3DFFCDEFA2289F05007F709DFFCA947
:0C04F900F022BBFEFCF309DFFCA9F0229E
:10077D00020C34E493A3F8E493A34003F68001F252
:10078D0008DFF48029E493A3F85407240CC8C3337D
:10079D00C4540F4420C8834004F456800146F6DF4C
:1007AD00E4800B0102040810204080900A42E47E90
:1007BD00019360BCA3FF543F30E509541FFEE49341
:1007CD00A360010ECF54C025E060A840B8E493A308
:1007DD00FAE493A3F8E493A3C8C582C8CAC583CA33
:1007ED00F0A3C8C582C8CAC583CADFE9DEE780BEEB
:010A7D000078
:00000001FF
