:101337008D80E5A0541FFEEF42068EA0E5A0541F46
:02134700F5A00F
:011349002281
:10124400E4FEEEC3940874809480500FC297EF13A9
:0B12540092A3EFC313FFD2970E80E7B8
:01125F00226C
:10130F00C29300C29700D29300121244AF0512127B
:04131F0044C293220F
:100FB200E4FDC29300C29700D29300121244E4FFF0
:100FC200EFC39408748094805011C297EDC313FD4F
:100FD20030A303430580D2970F80E5C29300C297E6
:0C0FE20000D29700C2A300D2A300AF050C
:010FEE0022E0
:060DEE008B0A8A0B890C40
:100DF400E4FD7F8E12130F7D807F8012130FE4FCBD
:100E0400ECC39403748094805036EC25E0FFC374E3
:100E1400849FFFAB0AAA0BA90C8C82758300120471
:100E24000DFE75F00A8475F00A84ADF0EDC454F03B
:100E3400FDEE75F00A84E5F04DFD12130F0C80C031
:070E44007D807F8E02130F79
:060F71008B0C8A0D890EB5
:100F7700C2AFE4FCECC3940374809480502AEC2540
:100F8700E0FFC374859FFF120FB2EFC4540F75F0D3
:100F97000AA4FEEF540F2EAB0CAA0DA90E8C827576
:0A0FA700830012044C0C80CCD2AF82
:010FB100221D
:0412B400D2A07F0A3B
:1012B800000000000000000000000000000000AE78
:0612C800071FEE70EB228F
:0F134A00D2A11212B4C2A17F0A1212B8C2A022FD
:0C136700C2A11212B4D2A17F0A0212B877
:02106200AD07D8
:10106400E4FCECC39408748094805024C2A07F0AEA
:101074001212B8ED30E704D2A18002C2A17F0A1295
:1010840012B8D2A0ED25E0FD7F0A1212B80C80D26E
:02109400C2A0F8
:011096002237
:10113C00E4FCECC394087480948050171212B4ED44
:10114C0025E0FD30A103430501C2A07F0A1212B8AD
:05115C000C80DFAF056F
:01116100226B
:10118700AB0512134A7FA0121062121199AF031216
:021197001062E4
:101199001212B4A2A1E433FDC2A07F0A1212B8AFA1
:0111A9000540
:0111AA002222
:10000300C2A0EF24FF92A17F0A1212B81212B4C247
:08001300A0D2A17F0A0212B87D
:02116200AB07D9
:1011640012134A7F9012118E12134A7F9112106249
:1011740012119912113CAD077F011200031213677B
:02118400AF05B5
:011186002246
:1012E500AB0712134A7F901210621211997F4112B7
:0512F500118E021367D9
:100F2F008B0F8A10891112118712134A7FA1121089
:100F3F0062121199AF131513EF602412113CAB0F0E
:100F4F000511E511AA107002051014F9EF12043AF9
:100F5F00E51360047F018002E4FF12000380D502D5
:020F6F00136706
:100EA5008B148A158916121187AF181518EF601F54
:100EB500AB140516E516AA157002051514F91203EB
:100EC500F4FF1210621211997FC81212B880DA125B
:100ED50013677FFF1212B87FFF1212B87FFF12123D
:060EE500B87FFF0212B805
:0E1359007DFF7F80121337E4FD7FA002133763
:100E4B00E4FF538EEFC2C4D2C2D2B520B3027F04EB
:100E5B0020B2027F0520B1027F0620B0027F07D2AD
:100E6B00C4C2C2D2B520B3027F0820B2027F0920D0
:100E7B00B1027F0A20B0027F0BD2C4D2C2C2B5200E
:100E8B00B3027F0C20B2027F0D20B1027F0E20B087
:090E9B00027F0F75B0FF438E10B9
:010EA400222B
:0C109700011900011BFF011A00011CFFE1
:100D820090000112040D25E0FF1203F44FFF9000C2
:100D92000212040D25E025E04FFF90000312040D1E
:100DA20033333354F84FFF90000412040DC454F04F
:100DB2004FFF90000512040DC43354E04FFF900022
:100DC2000612040DC4333354C04FFF9000071204BF
:100DD2000DFEC433333354804FF519651B600CE5A7
:0C0DE20019F4FD7F8012133785191B22C5
:0B138B007DFF7F80121337E4F51B226A
:10126000300305431A408003531ABFE51A651C601A
:0C1270000AAD1A7FA0121337851A1C2249
:10127C00300405431A108003531AEFE51A651C60FD
:0C128C000AAD1A7FA0121337851A1C222D
:10129800300505431A208003531ADFE51A651C60E0
:0C12A8000AAD1A7FA0121337851A1C2211
:0C13730003E800642328038403E8FC7CEA
:1010A300043007D00000084010101010101010106A
:0F10B300084B0000000000000000033D0D030586
:10098400C3E535940A748094805003020ADEE4F5CA
:1009940035120E4B8F2FE52D652FFF552FF521E5D1
:1009A4002FF45FF52E852F2DE52124FB602324FDF4
:1009B400603D147003020A6524056003020ADE0523
:1009C4003CE53C64046003020ADEF53CC200C2015B
:1009D40022AF3C7E00EF64017006A200B3920022B5
:1009E400EF64034E6003020ADEA201B3920122E522
:1009F4003C64016003020ADEA200FC33FD25E0FF33
:100A0400EC33FE74732FF58274133EF583E493FA8A
:100A1400740193FB74302FF808EB26F618EA36F6C7
:100A240074302FF8E6FA08E6FBED25E0FFEC33FE20
:100A340074772FF58274133EF583E493FC74019369
:100A4400FDD39BEA6480F8EC6480984003020ADEDC
:100A5400A200E43325E0FF74302FF8A60408A605AD
:100A640022E53C64017073A2003325E0FF74302F4B
:100A7400F8C000E6FC08E6FDA200E43325E0FFE44C
:100A840033FE74732FF58274133EF583E493FA7482
:100A94000193FBC3ED9BFDEC9AD000F608A605A9D3
:100AA40007743029F8E6FC08E6FDA200E43325E0EB
:100AB400FFE433FE747B2FF58274133EF583E493D5
:100AC400FE740193FFC39DEC6480F8EE648098404B
:0B0AD40009743029F8A60608A60722C6
:1005EB00750A03E4F50BC3784AE6945018E69400B9
:1005FB005003020983E4F608F6FB7A00793D120FEB
:10060B0071AF25AE24AD23AC22AB29AA28A927A80C
:10061B0026C31204B2502C8525298524288523272F
:10062B00852226E4F50BC3E50B940374809480506C
:10063B0012743D250BF8E6FF742A250BF8A6070567
:10064B000B80E3E53C14700302075314700302089C
:10065B003514700302087D2403600302098378407C
:10066B00760F78427610187610AF25AE24AD23ACFA
:10067B0022EC335003020730E47B107A27F9F8128F
:10068B000EEBE47B0AFAF9F8120EEBAF037843A6F4
:10069B0007E47BE87A03F9F8AF25AE24AD23AC224F
:1006AB00120EEBE47B0AFAF9F8120EEBAF03784467
:1006BB00A607E47B64FAF9F8AF25AE24AD23AC2290
:1006CB00120EEBE47B0AFAF9F8120EEBAF03784546
:1006DB00A607E47B0AFAF9F8AF25AE24AD23AC22CA
:1006EB00120EEBE47B0AFAF9F8120EEBAF03784625
:1006FB00A607E47B0AFAF9F8AF25AE24AD23AC22AA
:10070B00120EEBAF037847A6077440250AF8E66094
:10071B00030209837440250AF87610AF0A050AEF25
:10072B00640770E522E4F50BC3E50B940374809426
:10073B008040030209837443250BF87610784776C3
:10074B0014187614050B80E078407612A200E4337F
:10075B000408F678437610187610300021A200E4D6
:10076B003325E0FF74302FF8E6FEC3EE64809480EF
:10077B0050047F0180027F00EF2410FF8023A20032
:10078B00E43325E0FF74302FF8E6FE08E6FF121382
:10079B007F7C037DE812046E7C007D0A12046EAF31
:1007AB00057844A607A200E43325E0FF74302FF848
:1007BB00E6FE08E6FF12137F7C007D6412046E7C5C
:1007CB00007D0A12046E7845A605A200E43325E0ED
:1007DB00FF74302FF8E6FE08E6FF12137F7C007DD6
:1007EB000A12046E7C007D0A12046E7846A605A2DE
:1007FB0000E43325E0FF74302FF8E6FE08E6FF1225
:10080B00137F7C007D0A12046E7847A605A200E4D4
:10081B003325E0FF74302FF8E6FE08E64E60030246
:10082B0009837846761018761022E4F50BC3E50B96
:10083B009403748094805031743D250BF8E675F069
:10084B000A84FFE50B75F003A42440F8A607743D5A
:10085B00250BF8E675F00A84AFF0E50B75F003A4F1
:10086B002441F8A607050B80C478457611784276AB
:10087B00112278407613A201E43375F005A4FFC36F
:10088B00740F9F08F630010302094A087610E47BC7
:10089B00107A27F9F8AF29AE28AD27AC26120EEB4C
:1008AB00E47B0AFAF9F8120EEBAF037843A607E4E0
:1008BB007BE87A03F9F8AF29AE28AD27AC26120EE8
:1008CB00EBE47B0AFAF9F8120EEBAF037844A607B8
:1008DB00E47B64FAF9F8AF29AE28AD27AC26120EEB
:1008EB00EBE47B0AFAF9F8120EEBAF037845A60797
:1008FB00E47B0AFAF9F8AF29AE28AD27AC26120E25
:10090B00EBE47B0AFAF9F8120EEBAF037846A60775
:10091B00E47B0AFAF9F8AF29AE28AD27AC26120E04
:10092B00EBAF037847A6077440250AF8E6704974C5
:10093B0040250AF8760A050AE50A640770E922E4FD
:10094B00F50BC3E50B940374809480502B742A250C
:10095B000BF8E675F00A84FFE50B25E02442F8A6B8
:10096B0007742A250BF8E675F00A84E50B25E024BD
:08097B0043F8A6F0050B80CA49
:010983002251
:100ADF00AC22EC33500CE4F53BF53AF539F538021E
:100AEF000BC1AC22EC334023E47FF47E01FDFCAB61
:100AFF0025AA24A923A822D31204B2500EE4F53B51
:100B0F00F53A75398075383F020BC1AE30AF31EE13
:100B1F003395E0FDFCAB25AA24A923A822C3120418
:100B2F00B2400EE4F53BF53A7539A0753840020B2B
:100B3F00C1AE30AF31EE3395E0FDFCAB25AA24A951
:100B4F0023A822C31204B25069E47FF47E01FDFC96
:100B5F00A8221204B2405BE531240CFDE53034FECF
:100B6F00FC12033AA804A905AA06AB07E4FFFE7D11
:100B7F00807C4012021FC004C005C006C007E525D7
:100B8F00240CFFE52434FEFEE52334FFFDE522347B
:100B9F00FFFC120335D003D002D001D00012011692
:100BAF00E4FBFA7980783F1200258F3B8E3A8D391E
:100BBF008C38E4FFFE7D4C7C42AB3BAA3AA939A8A6
:100BCF00381201161203731212E5A202E433FFE585
:100BDF003C70047E0180027E00EE5F784BF6E4FFEE
:100BEF00FE7DA07C40AB3BAA3AA939A8381202BCC3
:100BFF0070047F0180027F00A202E4335F7006ACB5
:100C0F0022EC3350047F0180027F00784CA607222C
:1012FA00538EBF53890F758B18758DFCC28FD28E92
:05130A00D2ABD2AF22BE
:10132300538E7F5389F0438905758A18758CFCC2E7
:041333008DD28C22A9
:03001B00020C1FB5
:100C1F00C0E0C0F0C083C082C0D075D000C000C09B
:100C2F0001C002C003C004C005C006C00705357867
:100C3F004A06E618700106784806E664087001F661
:100C4F007848E62440F8E6FED394197480948078AF
:100C5F0048E6FF4008EE24D4FDD20780072440F871
:100C6F00E6FDC2071210C37B007A00794B120D828A
:100C7F000537E5377002053664E87004E53664031E
:100C8F00703BF536F537AF8CEFFEAD8AEDFFEE33E7
:100C9F0095E08F258E24F523F522AE32EE3395E0C5
:100CAF00FDFCE5252533F525E5243EF524E5233D1B
:100CBF00F523E5223CF522758C00758A000534E595
:100CCF003464C87007F534A202B39202D007D0067D
:100CDF00D005D004D003D002D001D000D0D0D08224
:070CEF00D083D0F0D0E03209
:10120A001213591212FA1213237B007A00793D1233
:0D121A000DEE1209841205EB120ADF80F5BB
:0411CE007F057E001B
:1011D200EF1FAA0670011E4A600FE4FDEDC3940CD6
:0911E2007480948050EA0D80F342
:0111EB0022E1
:0210EE00A90750
:1010F000E4FBEBC39408748094805012C294E9130B
:1011000092941211CED294E9C313F90B80E47F05B7
:051110007E000211D277
:1011AB00E4FBEBC39408748094805014C294ECC39A
:1011BB0013FCD2943094034304801211CE0B80E2C3
:0211CB00AF046F
:0111CD0022FF
:10111500C206D2947F0C7E001211D2C2947F507EFB
:10112500001211D2D2947F0A7E001211D2A294929B
:06113500061211CEA20615
:01113B002291
:100FEF001211157FCC1210EE7F441210EE7FC87EC7
:100FFF00001211D21211157FCC1210EE7FBE1210FB
:10100F00EE1211ABA9071211ABEFAD01FCEC1203FD
:0B101F003AE4FBFA7980783D020116EC
:10122700C0F9A4B0999282F880908883C6A1868E6F
:0D123700FFBF8C89C7010204081020408011
:1010C3008F088D097DFF7FE0121337E50890123CEE
:1010D30093FD7FC0121337E509901227933007045D
:0B10E300547F8000FD7FE012133722D5
:1012CE00759850438E01538EFB75D7E675D6FF4346
:0712DE008E10D2ACD2AF224A
:081396008F993099FDC29922E4
:06139E0000007F21DFFECC
:0113A4002226
:1011EC00C2AFE4FEEEC3940874809480500DD2908C
:0D11FC0012139EC29012139E0E80E9D2AF16
:0112090022C2
:10102A00E4F5D9F5F9F5E91211ECD2DE3091033085
:10103A00DFFAC2DE20DF1CAFF9EFFEADE9EDFFAC4F
:10104A0006E412033A7B967A43798B783C120116AE
:07105A00020373C2DF7F00F7
:01106100226C
:10001E000203DFE86480F8E933E83360110460F02E
:10002E00ED33EC337009E8FCE9FDEAFEEBFF220448
:10003E0060DED3EB9FEA9EE99DE8C2E78CF0C2F743
:10004E0095F0400CE8CCF8E9CDF9EACEFAEBCFFB0F
:10005E001203AA85D0F05804700320D5B3E80470BB
:10006E00075002B2D50203E992D5EC0460F7E4CC56
:10007E00C0E0C398F8603B94186008400DD0E0FBD8
:10008E000203C1E4FBFAC9FC8028E830E406E4C9A7
:10009E00FBE4CAFCE830E305E4C9CACBFCE854072C
:1000AE006010F8C3E913F9EA13FAEB13FBEC13FC37
:1000BE00D8F130F52FC3E49CFCEF9BFFEE9AFEEDDA
:1000CE0099FDD0E0FBEF4E4D4C701222DB03020384
:1000DE00E6EC2CFCEF33FFEE33FEED33FDED30E7B7
:1000EE00EB0203C1EF2BFFEE3AFEED39FDD0E0FB44
:1000FE0050130BBB00030203E9ED13FDEE13FEEFED
:08010E0013FFEC13FC0203C116
:10011600EC4D6011E8497017ED33EC3304600DE4E3
:10012600FCFFFEFD22E933E8330470F80203DF1218
:1001360003AA58046009E4CC248150062850090219
:1001460003E92840030203E6C0E0EB4A7044B980A5
:1001560006D0E0FB0203D5EF4E701CBD8008EBFF16
:10016600EAFEE9FD80EBE98DF0A4FEE5F00201FF71
:10017600E9CDF9EAFEEBFFEF89F0A4FCE5F0CE89C4
:10018600F0A42EFFE435F0CD89F0A42DFEE435F081
:100196008067EF4E7005BD80D780C3EF8BF0A4ACAF
:1001A600F0EE8BF0A42CFCE435F0F8EF8AF0A42CEA
:1001B600E5F038FCE433CB8DF0A42CFCE5F03BF8FD
:1001C600EE8AF0A42CFCE5F038F8E433CF89F0A4ED
:1001D6002CFCE5F038CF3400CE89F0A42FFFE5F0F3
:1001E6003EFEE433C98DF0A42EFEE5F039CD8AF04B
:1001F600A42FFFE5F03EFEE43DFD33D0E0FB5007C3
:100206000BBB000F0203E9EC2CFCEF33FFEE33FED1
:06021600ED33FD0203C1FF
:10021C000203E9EC5D046005E8590470030203DF96
:10022C001203AA580460F6EC4860F2EC7004FDFE70
:10023C00FF22C860DB2481C85009C39860025006B5
:10024C000203E69850CAF582E9294B4A7005AB8245
:10025C000203D575F0007C1A7880C3EF9BEE9AED03
:10026C0099400DC3EF9BFFEE9AFEED99FDE842F02D
:10027C00DC23ACF0D0E0FFD0E0FED0E0FDAB822080
:10028C00E7101BEB60BAEC2CFCEF33FFEE33FEED0A
:10029C0033FD0203C1E803F830E705C0F075F00048
:1002AC00EF2FFFEE33FEED33FD40B830E7C280AAEE
:1002BC0074F8CC6480CCC86480C8F58204604FC3E9
:1002CC00EB9FF5F0EA9E42F0E99D42F0E89C45F088
:1002DC00603C501DE5825FFFE582D313CB5BCBF412
:1002EC002B5582FB50280ABA002409B9002008803B
:1002FC001DE5825BFBE582D313CF5FCFF4C3132FD5
:10030C005582FF50090EBE00050DBD00010CC3EB5C
:10031C009FF5F0EA9E42F0E99D42F0E89C45F060C2
:09032C0007CC4820E701B3EC22E4
:1003350075F020800E75F010800575F0087D007E43
:10034500007F003392D530D5031204A4EC3340105E
:10035500EF33FFEE33FEED33FDEC33FCD5F0ED224C
:0E036500E5F0247EA2D513CC92E7CDCEFF2288
:10037300EDD2E7CD33EC3392D524814006E4FFFE82
:10038300FDFC22FCE4CFCECDCC24E0501174FF80E1
:10039300EDC3CC13CCCD13CDCE13CECF13CF04707E
:0703A300F030D5DE0204A4D6
:1003AA00E9D2E7C933E833F892D5EDD2E7CD33EC99
:0703BA0033FC5002B2D52212
:1003C100EC30E7100FBF000C0EBE00080DBD00049D
:1003D1000BEB6014A2D5EB13FCED92E7FD2274FF49
:1003E100FCFDFEFF22E480F8A2D574FF13FC7D80A2
:0303F100E480EFB6
:03000000020CF6F9
:0C0CF600787FE4F6D8FD758152020D3DB8
:1003F400BB010689828A83E0225002E722BBFE0207
:09040400E32289828A83E4932239
:10040D00BB010CE58229F582E5833AF583E02250A4
:10041D0006E92582F8E622BBFE06E92582F8E222EE
:0D042D00E58229F582E5833AF583E4932208
:10043A00BB010689828A83F0225002F722BBFE01A1
:02044A00F3229B
:10044C00F8BB010DE58229F582E5833AF583E8F0E6
:10045C00225006E92582C8F622BBFE05E92582C892
:02046C00F2227A
:10046E00C2D5EC30E709B2D5E4C39DFDE49CFCEEA9
:10047E0030E715B2D5E4C39FFFE49EFE1204C8C355
:10048E00E49DFDE49CFC80031204C830D507C3E450
:06049E009FFFE49EFE2218
:100EEB00C2D5E830E70FB2D5E4C39BFBE49AFAE432
:100EFB0099F9E498F8EC30E717B2D5120F211205E7
:100F0B0059E4C39BFBE49AFAE499F9E498F880035B
:100F1B0012055930D50DE4C39FFFE49EFEE49DFD01
:040F2B00E49CFC2224
:0E04A400C3E49FFFE49EFEE49DFDE49CFC2269
:1004B200EB9FF5F0EA9E42F0E99D42F0EC6480C8C1
:0604C20064809845F02261
:0C137F00EE30E707C3E49FFFE49EFE226F
:100D020002120AE493A3F8E493A34003F68001F2EB
:100D120008DFF48029E493A3F85407240CC8C333F2
:100D2200C4540F4420C8834004F456800146F6DFC1
:100D3200E4800B0102040810204080901097E47EAA
:100D4200019360BCA3FF543F30E509541FFEE493B6
:100D5200A360010ECF54C025E060A840B8E493A37D
:100D6200FAE493A3F8E493A3C8C582C8CAC583CAA8
:100D7200F0A3C8C582C8CAC583CADFE9DEE780BE60
:0110C200002D
:1004C800BC000BBE0029EF8DF084FFADF022E4CC18
:1004D800F875F008EF2FFFEE33FEEC33FCEE9DECE1
:1004E800984005FCEE9DFE0FD5F0E9E4CEFD22ED27
:1004F800F8F5F0EE8420D21CFEADF075F008EF2F71
:10050800FFED33FD4007985006D5F0F222C398FD61
:050518000FD5F0EA22FE
:10051D0075F008758200EF2FFFEE33FECD33CDCC95
:10052D0033CCC58233C5829BED9AEC99E582984018
:10053D000CF582EE9BFEED9AFDEC99FC0FD5F0D6F5
:10054D00E4CEFBE4CDFAE4CCF9A88222B800C1B91F
:10055D000059BA002DEC8BF084CFCECDFCE5F0CB5D
:10056D00F97818EF2FFFEE33FEED33FDEC33FCEB96
:10057D0033FB10D703994004EB99FB0FD8E5E4F951
:10058D00FA227818EF2FFFEE33FEED33FDEC33FC3E
:10059D00C933C910D7059BE99A4007EC9BFCE99A32
:1005AD00F90FD8E0E4C9FAE4CCFB2275F010EF2F77
:1005BD00FFEE33FEED33FDCC33CCC833C810D70777
:1005CD009BEC9AE899400AED9BFDEC9AFCE899F8B2
:0E05DD000FD5F0DAE4CDFBE4CCFAE4C8F92245
:00000001FF
